{"abi":[{"type":"constructor","inputs":[],"stateMutability":"nonpayable"},{"type":"function","name":"allowance","inputs":[{"name":"_owner","type":"address","internalType":"address"},{"name":"_spender","type":"address","internalType":"address"}],"outputs":[{"name":"remaining","type":"uint256","internalType":"uint256"}],"stateMutability":"view"},{"type":"function","name":"approve","inputs":[{"name":"_spender","type":"address","internalType":"address"},{"name":"_value","type":"uint256","internalType":"uint256"}],"outputs":[{"name":"success","type":"bool","internalType":"bool"}],"stateMutability":"nonpayable"},{"type":"function","name":"balanceOf","inputs":[{"name":"_owner","type":"address","internalType":"address"}],"outputs":[{"name":"balance","type":"uint256","internalType":"uint256"}],"stateMutability":"view"},{"type":"function","name":"decimals","inputs":[],"outputs":[{"name":"","type":"uint8","internalType":"uint8"}],"stateMutability":"view"},{"type":"function","name":"name","inputs":[],"outputs":[{"name":"","type":"string","internalType":"string"}],"stateMutability":"view"},{"type":"function","name":"symbol","inputs":[],"outputs":[{"name":"","type":"string","internalType":"string"}],"stateMutability":"view"},{"type":"function","name":"totalSupply","inputs":[],"outputs":[{"name":"","type":"uint256","internalType":"uint256"}],"stateMutability":"view"},{"type":"function","name":"transfer","inputs":[{"name":"_to","type":"address","internalType":"address"},{"name":"_value","type":"uint256","internalType":"uint256"}],"outputs":[{"name":"success","type":"bool","internalType":"bool"}],"stateMutability":"nonpayable"},{"type":"function","name":"transferFrom","inputs":[{"name":"_from","type":"address","internalType":"address"},{"name":"_to","type":"address","internalType":"address"},{"name":"_value","type":"uint256","internalType":"uint256"}],"outputs":[{"name":"success","type":"bool","internalType":"bool"}],"stateMutability":"nonpayable"},{"type":"function","name":"transferWithCallback","inputs":[{"name":"_to","type":"address","internalType":"address"},{"name":"amount","type":"uint256","internalType":"uint256"},{"name":"data","type":"bytes","internalType":"bytes"}],"outputs":[],"stateMutability":"nonpayable"},{"type":"event","name":"Approval","inputs":[{"name":"owner","type":"address","indexed":true,"internalType":"address"},{"name":"spender","type":"address","indexed":true,"internalType":"address"},{"name":"value","type":"uint256","indexed":false,"internalType":"uint256"}],"anonymous":false},{"type":"event","name":"Transfer","inputs":[{"name":"from","type":"address","indexed":true,"internalType":"address"},{"name":"to","type":"address","indexed":true,"internalType":"address"},{"name":"value","type":"uint256","indexed":false,"internalType":"uint256"}],"anonymous":false}],"bytecode":{"object":"0x608060405234801561000f575f80fd5b506040518060400160405280600381526020017f53535300000000000000000000000000000000000000000000000000000000008152505f90816100539190610368565b506040518060400160405280600281526020017f5337000000000000000000000000000000000000000000000000000000000000815250600190816100989190610368565b50601260025f6101000a81548160ff021916908360ff16021790555060025f9054906101000a900460ff1660ff16600a6100d29190610593565b6127106100df91906105dd565b60038190555060035460045f3373ffffffffffffffffffffffffffffffffffffffff1673ffffffffffffffffffffffffffffffffffffffff1681526020019081526020015f208190555061061e565b5f81519050919050565b7f4e487b71000000000000000000000000000000000000000000000000000000005f52604160045260245ffd5b7f4e487b71000000000000000000000000000000000000000000000000000000005f52602260045260245ffd5b5f60028204905060018216806101a957607f821691505b6020821081036101bc576101bb610165565b5b50919050565b5f819050815f5260205f209050919050565b5f6020601f8301049050919050565b5f82821b905092915050565b5f6008830261021e7fffffffffffffffffffffffffffffffffffffffffffffffffffffffffffffffff826101e3565b61022886836101e3565b95508019841693508086168417925050509392505050565b5f819050919050565b5f819050919050565b5f61026c61026761026284610240565b610249565b610240565b9050919050565b5f819050919050565b61028583610252565b61029961029182610273565b8484546101ef565b825550505050565b5f90565b6102ad6102a1565b6102b881848461027c565b505050565b5b818110156102db576102d05f826102a5565b6001810190506102be565b5050565b601f821115610320576102f1816101c2565b6102fa846101d4565b81016020851015610309578190505b61031d610315856101d4565b8301826102bd565b50505b505050565b5f82821c905092915050565b5f6103405f1984600802610325565b1980831691505092915050565b5f6103588383610331565b9150826002028217905092915050565b6103718261012e565b67ffffffffffffffff81111561038a57610389610138565b5b6103948254610192565b61039f8282856102df565b5f60209050601f8311600181146103d0575f84156103be578287015190505b6103c8858261034d565b86555061042f565b601f1984166103de866101c2565b5f5b82811015610405578489015182556001820191506020850194506020810190506103e0565b86831015610422578489015161041e601f891682610331565b8355505b6001600288020188555050505b505050505050565b7f4e487b71000000000000000000000000000000000000000000000000000000005f52601160045260245ffd5b5f8160011c9050919050565b5f808291508390505b60018511156104b95780860481111561049557610494610437565b5b60018516156104a45780820291505b80810290506104b285610464565b9450610479565b94509492505050565b5f826104d1576001905061058c565b816104de575f905061058c565b81600181146104f457600281146104fe5761052d565b600191505061058c565b60ff8411156105105761050f610437565b5b8360020a91508482111561052757610526610437565b5b5061058c565b5060208310610133831016604e8410600b84101617156105625782820a90508381111561055d5761055c610437565b5b61058c565b61056f8484846001610470565b9250905081840481111561058657610585610437565b5b81810290505b9392505050565b5f61059d82610240565b91506105a883610240565b92506105d57fffffffffffffffffffffffffffffffffffffffffffffffffffffffffffffffff84846104c2565b905092915050565b5f6105e782610240565b91506105f283610240565b925082820261060081610240565b9150828204841483151761061757610616610437565b5b5092915050565b61142e8061062b5f395ff3fe608060405234801561000f575f80fd5b506004361061009c575f3560e01c806370a082311161006457806370a082311461015a57806395d89b411461018a578063a9059cbb146101a8578063d3139195146101d8578063dd62ed3e146101f45761009c565b806306fdde03146100a0578063095ea7b3146100be57806318160ddd146100ee57806323b872dd1461010c578063313ce5671461013c575b5f80fd5b6100a8610224565b6040516100b59190610cd7565b60405180910390f35b6100d860048036038101906100d39190610d8c565b6102af565b6040516100e59190610de4565b60405180910390f35b6100f661039c565b6040516101039190610e0c565b60405180910390f35b61012660048036038101906101219190610e25565b6103a2565b6040516101339190610de4565b60405180910390f35b610144610682565b6040516101519190610e90565b60405180910390f35b610174600480360381019061016f9190610ea9565b610694565b6040516101819190610e0c565b60405180910390f35b610192610748565b60405161019f9190610cd7565b60405180910390f35b6101c260048036038101906101bd9190610d8c565b6107d4565b6040516101cf9190610de4565b60405180910390f35b6101f260048036038101906101ed9190610f35565b610969565b005b61020e60048036038101906102099190610fa6565b610bc3565b60405161021b9190610e0c565b60405180910390f35b5f805461023090611011565b80601f016020809104026020016040519081016040528092919081815260200182805461025c90611011565b80156102a75780601f1061027e576101008083540402835291602001916102a7565b820191905f5260205f20905b81548152906001019060200180831161028a57829003601f168201915b505050505081565b5f8160055f3373ffffffffffffffffffffffffffffffffffffffff1673ffffffffffffffffffffffffffffffffffffffff1681526020019081526020015f205f8573ffffffffffffffffffffffffffffffffffffffff1673ffffffffffffffffffffffffffffffffffffffff1681526020019081526020015f20819055508273ffffffffffffffffffffffffffffffffffffffff163373ffffffffffffffffffffffffffffffffffffffff167f8c5be1e5ebec7d5bd14f71427d1e84f3dd0314c0f7b2291e5b200ac8c7c3b9258460405161038a9190610e0c565b60405180910390a36001905092915050565b60035481565b5f8160045f8673ffffffffffffffffffffffffffffffffffffffff1673ffffffffffffffffffffffffffffffffffffffff1681526020019081526020015f20541015610423576040517f08c379a000000000000000000000000000000000000000000000000000000000815260040161041a906110b1565b60405180910390fd5b8160055f8673ffffffffffffffffffffffffffffffffffffffff1673ffffffffffffffffffffffffffffffffffffffff1681526020019081526020015f205f3373ffffffffffffffffffffffffffffffffffffffff1673ffffffffffffffffffffffffffffffffffffffff1681526020019081526020015f205410156104de576040517f08c379a00000000000000000000000000000000000000000000000000000000081526004016104d59061113f565b60405180910390fd5b8160045f8673ffffffffffffffffffffffffffffffffffffffff1673ffffffffffffffffffffffffffffffffffffffff1681526020019081526020015f205f82825461052a919061118a565b925050819055508160045f8573ffffffffffffffffffffffffffffffffffffffff1673ffffffffffffffffffffffffffffffffffffffff1681526020019081526020015f205f82825461057d91906111bd565b925050819055508160055f8673ffffffffffffffffffffffffffffffffffffffff1673ffffffffffffffffffffffffffffffffffffffff1681526020019081526020015f205f3373ffffffffffffffffffffffffffffffffffffffff1673ffffffffffffffffffffffffffffffffffffffff1681526020019081526020015f205f82825461060b919061118a565b925050819055508273ffffffffffffffffffffffffffffffffffffffff168473ffffffffffffffffffffffffffffffffffffffff167fddf252ad1be2c89b69c2b068fc378daa952ba7f163c4a11628f55a4df523b3ef8460405161066f9190610e0c565b60405180910390a3600190509392505050565b60025f9054906101000a900460ff1681565b5f8073ffffffffffffffffffffffffffffffffffffffff168273ffffffffffffffffffffffffffffffffffffffff1611610703576040517f08c379a00000000000000000000000000000000000000000000000000000000081526004016106fa90611260565b60405180910390fd5b60045f8373ffffffffffffffffffffffffffffffffffffffff1673ffffffffffffffffffffffffffffffffffffffff1681526020019081526020015f20549050919050565b6001805461075590611011565b80601f016020809104026020016040519081016040528092919081815260200182805461078190611011565b80156107cc5780601f106107a3576101008083540402835291602001916107cc565b820191905f5260205f20905b8154815290600101906020018083116107af57829003601f168201915b505050505081565b5f8160045f3373ffffffffffffffffffffffffffffffffffffffff1673ffffffffffffffffffffffffffffffffffffffff1681526020019081526020015f205411610854576040517f08c379a000000000000000000000000000000000000000000000000000000000815260040161084b906110b1565b60405180910390fd5b8160045f3373ffffffffffffffffffffffffffffffffffffffff1673ffffffffffffffffffffffffffffffffffffffff1681526020019081526020015f205f8282546108a0919061118a565b925050819055508160045f8573ffffffffffffffffffffffffffffffffffffffff1673ffffffffffffffffffffffffffffffffffffffff1681526020019081526020015f205f8282546108f391906111bd565b925050819055508273ffffffffffffffffffffffffffffffffffffffff163373ffffffffffffffffffffffffffffffffffffffff167fddf252ad1be2c89b69c2b068fc378daa952ba7f163c4a11628f55a4df523b3ef846040516109579190610e0c565b60405180910390a36001905092915050565b8260045f3373ffffffffffffffffffffffffffffffffffffffff1673ffffffffffffffffffffffffffffffffffffffff1681526020019081526020015f205410156109e9576040517f08c379a00000000000000000000000000000000000000000000000000000000081526004016109e0906110b1565b60405180910390fd5b8260045f3373ffffffffffffffffffffffffffffffffffffffff1673ffffffffffffffffffffffffffffffffffffffff1681526020019081526020015f205f828254610a35919061118a565b925050819055508260045f8673ffffffffffffffffffffffffffffffffffffffff1673ffffffffffffffffffffffffffffffffffffffff1681526020019081526020015f205f828254610a8891906111bd565b92505081905550610a9884610c45565b15610bbd578373ffffffffffffffffffffffffffffffffffffffff1663d0314263338585856040518563ffffffff1660e01b8152600401610adc94939291906112d7565b6020604051808303815f875af1925050508015610b1757506040513d601f19601f82011682018060405250810190610b14919061133f565b60015b610b56576040517f08c379a0000000000000000000000000000000000000000000000000000000008152600401610b4d906113da565b60405180910390fd5b508373ffffffffffffffffffffffffffffffffffffffff163373ffffffffffffffffffffffffffffffffffffffff167fddf252ad1be2c89b69c2b068fc378daa952ba7f163c4a11628f55a4df523b3ef85604051610bb49190610e0c565b60405180910390a35b50505050565b5f60055f8473ffffffffffffffffffffffffffffffffffffffff1673ffffffffffffffffffffffffffffffffffffffff1681526020019081526020015f205f8373ffffffffffffffffffffffffffffffffffffffff1673ffffffffffffffffffffffffffffffffffffffff1681526020019081526020015f2054905092915050565b5f808273ffffffffffffffffffffffffffffffffffffffff163b119050919050565b5f81519050919050565b5f82825260208201905092915050565b8281835e5f83830152505050565b5f601f19601f8301169050919050565b5f610ca982610c67565b610cb38185610c71565b9350610cc3818560208601610c81565b610ccc81610c8f565b840191505092915050565b5f6020820190508181035f830152610cef8184610c9f565b905092915050565b5f80fd5b5f80fd5b5f73ffffffffffffffffffffffffffffffffffffffff82169050919050565b5f610d2882610cff565b9050919050565b610d3881610d1e565b8114610d42575f80fd5b50565b5f81359050610d5381610d2f565b92915050565b5f819050919050565b610d6b81610d59565b8114610d75575f80fd5b50565b5f81359050610d8681610d62565b92915050565b5f8060408385031215610da257610da1610cf7565b5b5f610daf85828601610d45565b9250506020610dc085828601610d78565b9150509250929050565b5f8115159050919050565b610dde81610dca565b82525050565b5f602082019050610df75f830184610dd5565b92915050565b610e0681610d59565b82525050565b5f602082019050610e1f5f830184610dfd565b92915050565b5f805f60608486031215610e3c57610e3b610cf7565b5b5f610e4986828701610d45565b9350506020610e5a86828701610d45565b9250506040610e6b86828701610d78565b9150509250925092565b5f60ff82169050919050565b610e8a81610e75565b82525050565b5f602082019050610ea35f830184610e81565b92915050565b5f60208284031215610ebe57610ebd610cf7565b5b5f610ecb84828501610d45565b91505092915050565b5f80fd5b5f80fd5b5f80fd5b5f8083601f840112610ef557610ef4610ed4565b5b8235905067ffffffffffffffff811115610f1257610f11610ed8565b5b602083019150836001820283011115610f2e57610f2d610edc565b5b9250929050565b5f805f8060608587031215610f4d57610f4c610cf7565b5b5f610f5a87828801610d45565b9450506020610f6b87828801610d78565b935050604085013567ffffffffffffffff811115610f8c57610f8b610cfb565b5b610f9887828801610ee0565b925092505092959194509250565b5f8060408385031215610fbc57610fbb610cf7565b5b5f610fc985828601610d45565b9250506020610fda85828601610d45565b9150509250929050565b7f4e487b71000000000000000000000000000000000000000000000000000000005f52602260045260245ffd5b5f600282049050600182168061102857607f821691505b60208210810361103b5761103a610fe4565b5b50919050565b7f45524332303a207472616e7366657220616d6f756e74206578636565647320625f8201527f616c616e63650000000000000000000000000000000000000000000000000000602082015250565b5f61109b602683610c71565b91506110a682611041565b604082019050919050565b5f6020820190508181035f8301526110c88161108f565b9050919050565b7f45524332303a20746f6b656e207472616e7366657220616d6f756e74206578635f8201527f6565647320616c6c6f77616e6365000000000000000000000000000000000000602082015250565b5f611129602e83610c71565b9150611134826110cf565b604082019050919050565b5f6020820190508181035f8301526111568161111d565b9050919050565b7f4e487b71000000000000000000000000000000000000000000000000000000005f52601160045260245ffd5b5f61119482610d59565b915061119f83610d59565b92508282039050818111156111b7576111b661115d565b5b92915050565b5f6111c782610d59565b91506111d283610d59565b92508282019050808211156111ea576111e961115d565b5b92915050565b7f45524332303a2062616c616e636520717565727920666f7220746865207a65725f8201527f6f20616464726573730000000000000000000000000000000000000000000000602082015250565b5f61124a602983610c71565b9150611255826111f0565b604082019050919050565b5f6020820190508181035f8301526112778161123e565b9050919050565b61128781610d1e565b82525050565b5f82825260208201905092915050565b828183375f83830152505050565b5f6112b6838561128d565b93506112c383858461129d565b6112cc83610c8f565b840190509392505050565b5f6060820190506112ea5f83018761127e565b6112f76020830186610dfd565b818103604083015261130a8184866112ab565b905095945050505050565b61131e81610dca565b8114611328575f80fd5b50565b5f8151905061133981611315565b92915050565b5f6020828403121561135457611353610cf7565b5b5f6113618482850161132b565b91505092915050565b7f45524332303a20746f6b656e73526563656976656420686f6f6b206661696c655f8201527f6400000000000000000000000000000000000000000000000000000000000000602082015250565b5f6113c4602183610c71565b91506113cf8261136a565b604082019050919050565b5f6020820190508181035f8301526113f1816113b8565b905091905056fea26469706673582212208004a775fce17f7cad1713615205a4ef4191814f28c0422c08e9d7924c7178c064736f6c63430008190033","linkReferences":{}},"methodIdentifiers":{"allowance(address,address)":"dd62ed3e","approve(address,uint256)":"095ea7b3","balanceOf(address)":"70a08231","decimals()":"313ce567","name()":"06fdde03","symbol()":"95d89b41","totalSupply()":"18160ddd","transfer(address,uint256)":"a9059cbb","transferFrom(address,address,uint256)":"23b872dd","transferWithCallback(address,uint256,bytes)":"d3139195"},"id":38}