{"abi":[{"type":"constructor","inputs":[{"name":"name_","type":"string","internalType":"string"},{"name":"symbol_","type":"string","internalType":"string"}],"stateMutability":"nonpayable"},{"type":"function","name":"approve","inputs":[{"name":"to","type":"address","internalType":"address"},{"name":"tokenId","type":"uint256","internalType":"uint256"}],"outputs":[],"stateMutability":"nonpayable"},{"type":"function","name":"balanceOf","inputs":[{"name":"owner","type":"address","internalType":"address"}],"outputs":[{"name":"","type":"uint256","internalType":"uint256"}],"stateMutability":"view"},{"type":"function","name":"getApproved","inputs":[{"name":"tokenId","type":"uint256","internalType":"uint256"}],"outputs":[{"name":"","type":"address","internalType":"address"}],"stateMutability":"view"},{"type":"function","name":"isApprovedForAll","inputs":[{"name":"owner","type":"address","internalType":"address"},{"name":"operator","type":"address","internalType":"address"}],"outputs":[{"name":"","type":"bool","internalType":"bool"}],"stateMutability":"view"},{"type":"function","name":"mint","inputs":[{"name":"student","type":"address","internalType":"address"},{"name":"tokenURI","type":"string","internalType":"string"}],"outputs":[{"name":"","type":"uint256","internalType":"uint256"}],"stateMutability":"nonpayable"},{"type":"function","name":"name","inputs":[],"outputs":[{"name":"","type":"string","internalType":"string"}],"stateMutability":"view"},{"type":"function","name":"ownerOf","inputs":[{"name":"tokenId","type":"uint256","internalType":"uint256"}],"outputs":[{"name":"","type":"address","internalType":"address"}],"stateMutability":"view"},{"type":"function","name":"safeTransferFrom","inputs":[{"name":"from","type":"address","internalType":"address"},{"name":"to","type":"address","internalType":"address"},{"name":"tokenId","type":"uint256","internalType":"uint256"}],"outputs":[],"stateMutability":"nonpayable"},{"type":"function","name":"safeTransferFrom","inputs":[{"name":"from","type":"address","internalType":"address"},{"name":"to","type":"address","internalType":"address"},{"name":"tokenId","type":"uint256","internalType":"uint256"},{"name":"data","type":"bytes","internalType":"bytes"}],"outputs":[],"stateMutability":"nonpayable"},{"type":"function","name":"setApprovalForAll","inputs":[{"name":"operator","type":"address","internalType":"address"},{"name":"approved","type":"bool","internalType":"bool"}],"outputs":[],"stateMutability":"nonpayable"},{"type":"function","name":"supportsInterface","inputs":[{"name":"interfaceId","type":"bytes4","internalType":"bytes4"}],"outputs":[{"name":"","type":"bool","internalType":"bool"}],"stateMutability":"view"},{"type":"function","name":"symbol","inputs":[],"outputs":[{"name":"","type":"string","internalType":"string"}],"stateMutability":"view"},{"type":"function","name":"tokenURI","inputs":[{"name":"tokenId","type":"uint256","internalType":"uint256"}],"outputs":[{"name":"","type":"string","internalType":"string"}],"stateMutability":"view"},{"type":"function","name":"transferFrom","inputs":[{"name":"from","type":"address","internalType":"address"},{"name":"to","type":"address","internalType":"address"},{"name":"tokenId","type":"uint256","internalType":"uint256"}],"outputs":[],"stateMutability":"nonpayable"},{"type":"event","name":"Approval","inputs":[{"name":"owner","type":"address","indexed":true,"internalType":"address"},{"name":"approved","type":"address","indexed":true,"internalType":"address"},{"name":"tokenId","type":"uint256","indexed":true,"internalType":"uint256"}],"anonymous":false},{"type":"event","name":"ApprovalForAll","inputs":[{"name":"owner","type":"address","indexed":true,"internalType":"address"},{"name":"operator","type":"address","indexed":true,"internalType":"address"},{"name":"approved","type":"bool","indexed":false,"internalType":"bool"}],"anonymous":false},{"type":"event","name":"BatchMetadataUpdate","inputs":[{"name":"_fromTokenId","type":"uint256","indexed":false,"internalType":"uint256"},{"name":"_toTokenId","type":"uint256","indexed":false,"internalType":"uint256"}],"anonymous":false},{"type":"event","name":"MetadataUpdate","inputs":[{"name":"_tokenId","type":"uint256","indexed":false,"internalType":"uint256"}],"anonymous":false},{"type":"event","name":"Transfer","inputs":[{"name":"from","type":"address","indexed":true,"internalType":"address"},{"name":"to","type":"address","indexed":true,"internalType":"address"},{"name":"tokenId","type":"uint256","indexed":true,"internalType":"uint256"}],"anonymous":false},{"type":"error","name":"ERC721IncorrectOwner","inputs":[{"name":"sender","type":"address","internalType":"address"},{"name":"tokenId","type":"uint256","internalType":"uint256"},{"name":"owner","type":"address","internalType":"address"}]},{"type":"error","name":"ERC721InsufficientApproval","inputs":[{"name":"operator","type":"address","internalType":"address"},{"name":"tokenId","type":"uint256","internalType":"uint256"}]},{"type":"error","name":"ERC721InvalidApprover","inputs":[{"name":"approver","type":"address","internalType":"address"}]},{"type":"error","name":"ERC721InvalidOperator","inputs":[{"name":"operator","type":"address","internalType":"address"}]},{"type":"error","name":"ERC721InvalidOwner","inputs":[{"name":"owner","type":"address","internalType":"address"}]},{"type":"error","name":"ERC721InvalidReceiver","inputs":[{"name":"receiver","type":"address","internalType":"address"}]},{"type":"error","name":"ERC721InvalidSender","inputs":[{"name":"sender","type":"address","internalType":"address"}]},{"type":"error","name":"ERC721NonexistentToken","inputs":[{"name":"tokenId","type":"uint256","internalType":"uint256"}]}],"bytecode":{"object":"0x608060405234801561000f575f5ffd5b50604051612790380380612790833981810160405281019061003191906101a8565b8181815f9081610041919061042e565b508060019081610051919061042e565b50505050506104fd565b5f604051905090565b5f5ffd5b5f5ffd5b5f5ffd5b5f5ffd5b5f601f19601f8301169050919050565b7f4e487b71000000000000000000000000000000000000000000000000000000005f52604160045260245ffd5b6100ba82610074565b810181811067ffffffffffffffff821117156100d9576100d8610084565b5b80604052505050565b5f6100eb61005b565b90506100f782826100b1565b919050565b5f67ffffffffffffffff82111561011657610115610084565b5b61011f82610074565b9050602081019050919050565b8281835e5f83830152505050565b5f61014c610147846100fc565b6100e2565b90508281526020810184848401111561016857610167610070565b5b61017384828561012c565b509392505050565b5f82601f83011261018f5761018e61006c565b5b815161019f84826020860161013a565b91505092915050565b5f5f604083850312156101be576101bd610064565b5b5f83015167ffffffffffffffff8111156101db576101da610068565b5b6101e78582860161017b565b925050602083015167ffffffffffffffff81111561020857610207610068565b5b6102148582860161017b565b9150509250929050565b5f81519050919050565b7f4e487b71000000000000000000000000000000000000000000000000000000005f52602260045260245ffd5b5f600282049050600182168061026c57607f821691505b60208210810361027f5761027e610228565b5b50919050565b5f819050815f5260205f209050919050565b5f6020601f8301049050919050565b5f82821b905092915050565b5f600883026102e17fffffffffffffffffffffffffffffffffffffffffffffffffffffffffffffffff826102a6565b6102eb86836102a6565b95508019841693508086168417925050509392505050565b5f819050919050565b5f819050919050565b5f61032f61032a61032584610303565b61030c565b610303565b9050919050565b5f819050919050565b61034883610315565b61035c61035482610336565b8484546102b2565b825550505050565b5f5f905090565b610373610364565b61037e81848461033f565b505050565b5b818110156103a1576103965f8261036b565b600181019050610384565b5050565b601f8211156103e6576103b781610285565b6103c084610297565b810160208510156103cf578190505b6103e36103db85610297565b830182610383565b50505b505050565b5f82821c905092915050565b5f6104065f19846008026103eb565b1980831691505092915050565b5f61041e83836103f7565b9150826002028217905092915050565b6104378261021e565b67ffffffffffffffff8111156104505761044f610084565b5b61045a8254610255565b6104658282856103a5565b5f60209050601f831160018114610496575f8415610484578287015190505b61048e8582610413565b8655506104f5565b601f1984166104a486610285565b5f5b828110156104cb578489015182556001820191506020850194506020810190506104a6565b868310156104e857848901516104e4601f8916826103f7565b8355505b6001600288020188555050505b505050505050565b6122868061050a5f395ff3fe608060405234801561000f575f5ffd5b50600436106100e8575f3560e01c806370a082311161008a578063b88d4fde11610064578063b88d4fde14610258578063c87b56dd14610274578063d0def521146102a4578063e985e9c5146102d4576100e8565b806370a08231146101ee57806395d89b411461021e578063a22cb4651461023c576100e8565b8063095ea7b3116100c6578063095ea7b31461016a57806323b872dd1461018657806342842e0e146101a25780636352211e146101be576100e8565b806301ffc9a7146100ec57806306fdde031461011c578063081812fc1461013a575b5f5ffd5b610106600480360381019061010191906117ca565b610304565b604051610113919061180f565b60405180910390f35b610124610364565b6040516101319190611898565b60405180910390f35b610154600480360381019061014f91906118eb565b6103f3565b6040516101619190611955565b60405180910390f35b610184600480360381019061017f9190611998565b61040e565b005b6101a0600480360381019061019b91906119d6565b610424565b005b6101bc60048036038101906101b791906119d6565b610523565b005b6101d860048036038101906101d391906118eb565b610542565b6040516101e59190611955565b60405180910390f35b61020860048036038101906102039190611a26565b610553565b6040516102159190611a60565b60405180910390f35b610226610609565b6040516102339190611898565b60405180910390f35b61025660048036038101906102519190611aa3565b610699565b005b610272600480360381019061026d9190611c0d565b6106af565b005b61028e600480360381019061028991906118eb565b6106d4565b60405161029b9190611898565b60405180910390f35b6102be60048036038101906102b99190611d2b565b6107df565b6040516102cb9190611a60565b60405180910390f35b6102ee60048036038101906102e99190611d85565b610815565b6040516102fb919061180f565b60405180910390f35b5f634906490660e01b7bffffffffffffffffffffffffffffffffffffffffffffffffffffffff1916827bffffffffffffffffffffffffffffffffffffffffffffffffffffffff1916148061035d575061035c826108a3565b5b9050919050565b60605f805461037290611df0565b80601f016020809104026020016040519081016040528092919081815260200182805461039e90611df0565b80156103e95780601f106103c0576101008083540402835291602001916103e9565b820191905f5260205f20905b8154815290600101906020018083116103cc57829003601f168201915b5050505050905090565b5f6103fd82610984565b5061040782610a0a565b9050919050565b610420828261041b610a43565b610a4a565b5050565b5f73ffffffffffffffffffffffffffffffffffffffff168273ffffffffffffffffffffffffffffffffffffffff1603610494575f6040517f64a0ae9200000000000000000000000000000000000000000000000000000000815260040161048b9190611955565b60405180910390fd5b5f6104a783836104a2610a43565b610a5c565b90508373ffffffffffffffffffffffffffffffffffffffff168173ffffffffffffffffffffffffffffffffffffffff161461051d578382826040517f64283d7b00000000000000000000000000000000000000000000000000000000815260040161051493929190611e20565b60405180910390fd5b50505050565b61053d83838360405180602001604052805f8152506106af565b505050565b5f61054c82610984565b9050919050565b5f5f73ffffffffffffffffffffffffffffffffffffffff168273ffffffffffffffffffffffffffffffffffffffff16036105c4575f6040517f89c62b640000000000000000000000000000000000000000000000000000000081526004016105bb9190611955565b60405180910390fd5b60035f8373ffffffffffffffffffffffffffffffffffffffff1673ffffffffffffffffffffffffffffffffffffffff1681526020019081526020015f20549050919050565b60606001805461061890611df0565b80601f016020809104026020016040519081016040528092919081815260200182805461064490611df0565b801561068f5780601f106106665761010080835404028352916020019161068f565b820191905f5260205f20905b81548152906001019060200180831161067257829003601f168201915b5050505050905090565b6106ab6106a4610a43565b8383610c67565b5050565b6106ba848484610424565b6106ce6106c5610a43565b85858585610dd0565b50505050565b60606106df82610984565b505f60065f8481526020019081526020015f2080546106fd90611df0565b80601f016020809104026020016040519081016040528092919081815260200182805461072990611df0565b80156107745780601f1061074b57610100808354040283529160200191610774565b820191905f5260205f20905b81548152906001019060200180831161075757829003601f168201915b505050505090505f610784610f7c565b90505f8151036107985781925050506107da565b5f825111156107cc5780826040516020016107b4929190611e8f565b604051602081830303815290604052925050506107da565b6107d584610f92565b925050505b919050565b5f6107ea6007610ff8565b5f6107f5600761100c565b90506108018482611018565b61080b818461110b565b8091505092915050565b5f60055f8473ffffffffffffffffffffffffffffffffffffffff1673ffffffffffffffffffffffffffffffffffffffff1681526020019081526020015f205f8373ffffffffffffffffffffffffffffffffffffffff1673ffffffffffffffffffffffffffffffffffffffff1681526020019081526020015f205f9054906101000a900460ff16905092915050565b5f7f80ac58cd000000000000000000000000000000000000000000000000000000007bffffffffffffffffffffffffffffffffffffffffffffffffffffffff1916827bffffffffffffffffffffffffffffffffffffffffffffffffffffffff1916148061096d57507f5b5e139f000000000000000000000000000000000000000000000000000000007bffffffffffffffffffffffffffffffffffffffffffffffffffffffff1916827bffffffffffffffffffffffffffffffffffffffffffffffffffffffff1916145b8061097d575061097c82611165565b5b9050919050565b5f5f61098f836111ce565b90505f73ffffffffffffffffffffffffffffffffffffffff168173ffffffffffffffffffffffffffffffffffffffff1603610a0157826040517f7e2732890000000000000000000000000000000000000000000000000000000081526004016109f89190611a60565b60405180910390fd5b80915050919050565b5f60045f8381526020019081526020015f205f9054906101000a900473ffffffffffffffffffffffffffffffffffffffff169050919050565b5f33905090565b610a578383836001611207565b505050565b5f5f610a67846111ce565b90505f73ffffffffffffffffffffffffffffffffffffffff168373ffffffffffffffffffffffffffffffffffffffff1614610aa857610aa78184866113c6565b5b5f73ffffffffffffffffffffffffffffffffffffffff168173ffffffffffffffffffffffffffffffffffffffff1614610b3357610ae75f855f5f611207565b600160035f8373ffffffffffffffffffffffffffffffffffffffff1673ffffffffffffffffffffffffffffffffffffffff1681526020019081526020015f205f82825403925050819055505b5f73ffffffffffffffffffffffffffffffffffffffff168573ffffffffffffffffffffffffffffffffffffffff1614610bb257600160035f8773ffffffffffffffffffffffffffffffffffffffff1673ffffffffffffffffffffffffffffffffffffffff1681526020019081526020015f205f82825401925050819055505b8460025f8681526020019081526020015f205f6101000a81548173ffffffffffffffffffffffffffffffffffffffff021916908373ffffffffffffffffffffffffffffffffffffffff160217905550838573ffffffffffffffffffffffffffffffffffffffff168273ffffffffffffffffffffffffffffffffffffffff167fddf252ad1be2c89b69c2b068fc378daa952ba7f163c4a11628f55a4df523b3ef60405160405180910390a4809150509392505050565b5f73ffffffffffffffffffffffffffffffffffffffff168273ffffffffffffffffffffffffffffffffffffffff1603610cd757816040517f5b08ba18000000000000000000000000000000000000000000000000000000008152600401610cce9190611955565b60405180910390fd5b8060055f8573ffffffffffffffffffffffffffffffffffffffff1673ffffffffffffffffffffffffffffffffffffffff1681526020019081526020015f205f8473ffffffffffffffffffffffffffffffffffffffff1673ffffffffffffffffffffffffffffffffffffffff1681526020019081526020015f205f6101000a81548160ff0219169083151502179055508173ffffffffffffffffffffffffffffffffffffffff168373ffffffffffffffffffffffffffffffffffffffff167f17307eab39ab6107e8899845ad3d59bd9653f200f220920489ca2b5937696c3183604051610dc3919061180f565b60405180910390a3505050565b5f8373ffffffffffffffffffffffffffffffffffffffff163b1115610f75578273ffffffffffffffffffffffffffffffffffffffff1663150b7a02868685856040518563ffffffff1660e01b8152600401610e2e9493929190611f04565b6020604051808303815f875af1925050508015610e6957506040513d601f19601f82011682018060405250810190610e669190611f62565b60015b610eea573d805f8114610e97576040519150601f19603f3d011682016040523d82523d5f602084013e610e9c565b606091505b505f815103610ee257836040517f64a0ae92000000000000000000000000000000000000000000000000000000008152600401610ed99190611955565b60405180910390fd5b805181602001fd5b63150b7a0260e01b7bffffffffffffffffffffffffffffffffffffffffffffffffffffffff1916817bffffffffffffffffffffffffffffffffffffffffffffffffffffffff191614610f7357836040517f64a0ae92000000000000000000000000000000000000000000000000000000008152600401610f6a9190611955565b60405180910390fd5b505b5050505050565b606060405180602001604052805f815250905090565b6060610f9d82610984565b505f610fa7610f7c565b90505f815111610fc55760405180602001604052805f815250610ff0565b80610fcf84611489565b604051602001610fe0929190611e8f565b6040516020818303038152906040525b915050919050565b6001815f015f828254019250508190555050565b5f815f01549050919050565b5f73ffffffffffffffffffffffffffffffffffffffff168273ffffffffffffffffffffffffffffffffffffffff1603611088575f6040517f64a0ae9200000000000000000000000000000000000000000000000000000000815260040161107f9190611955565b60405180910390fd5b5f61109483835f610a5c565b90505f73ffffffffffffffffffffffffffffffffffffffff168173ffffffffffffffffffffffffffffffffffffffff1614611106575f6040517f73c6ac6e0000000000000000000000000000000000000000000000000000000081526004016110fd9190611955565b60405180910390fd5b505050565b8060065f8481526020019081526020015f209081611129919061212d565b507ff8e1a15aba9398e019f0b49df1a4fde98ee17ae345cb5f6b5e2c27f5033e8ce7826040516111599190611a60565b60405180910390a15050565b5f7f01ffc9a7000000000000000000000000000000000000000000000000000000007bffffffffffffffffffffffffffffffffffffffffffffffffffffffff1916827bffffffffffffffffffffffffffffffffffffffffffffffffffffffff1916149050919050565b5f60025f8381526020019081526020015f205f9054906101000a900473ffffffffffffffffffffffffffffffffffffffff169050919050565b808061123f57505f73ffffffffffffffffffffffffffffffffffffffff168273ffffffffffffffffffffffffffffffffffffffff1614155b15611371575f61124e84610984565b90505f73ffffffffffffffffffffffffffffffffffffffff168373ffffffffffffffffffffffffffffffffffffffff16141580156112b857508273ffffffffffffffffffffffffffffffffffffffff168173ffffffffffffffffffffffffffffffffffffffff1614155b80156112cb57506112c98184610815565b155b1561130d57826040517fa9fbf51f0000000000000000000000000000000000000000000000000000000081526004016113049190611955565b60405180910390fd5b811561136f57838573ffffffffffffffffffffffffffffffffffffffff168273ffffffffffffffffffffffffffffffffffffffff167f8c5be1e5ebec7d5bd14f71427d1e84f3dd0314c0f7b2291e5b200ac8c7c3b92560405160405180910390a45b505b8360045f8581526020019081526020015f205f6101000a81548173ffffffffffffffffffffffffffffffffffffffff021916908373ffffffffffffffffffffffffffffffffffffffff16021790555050505050565b6113d1838383611553565b611484575f73ffffffffffffffffffffffffffffffffffffffff168373ffffffffffffffffffffffffffffffffffffffff160361144557806040517f7e27328900000000000000000000000000000000000000000000000000000000815260040161143c9190611a60565b60405180910390fd5b81816040517f177e802f00000000000000000000000000000000000000000000000000000000815260040161147b9291906121fc565b60405180910390fd5b505050565b60605f600161149784611613565b0190505f8167ffffffffffffffff8111156114b5576114b4611ae9565b5b6040519080825280601f01601f1916602001820160405280156114e75781602001600182028036833780820191505090505b5090505f82602001820190505b600115611548578080600190039150507f3031323334353637383961626364656600000000000000000000000000000000600a86061a8153600a858161153d5761153c612223565b5b0494505f85036114f4575b819350505050919050565b5f5f73ffffffffffffffffffffffffffffffffffffffff168373ffffffffffffffffffffffffffffffffffffffff161415801561160a57508273ffffffffffffffffffffffffffffffffffffffff168473ffffffffffffffffffffffffffffffffffffffff1614806115cb57506115ca8484610815565b5b8061160957508273ffffffffffffffffffffffffffffffffffffffff166115f183610a0a565b73ffffffffffffffffffffffffffffffffffffffff16145b5b90509392505050565b5f5f5f90507a184f03e93ff9f4daa797ed6e38ed64bf6a1f010000000000000000831061166f577a184f03e93ff9f4daa797ed6e38ed64bf6a1f010000000000000000838161166557611664612223565b5b0492506040810190505b6d04ee2d6d415b85acef810000000083106116ac576d04ee2d6d415b85acef810000000083816116a2576116a1612223565b5b0492506020810190505b662386f26fc1000083106116db57662386f26fc1000083816116d1576116d0612223565b5b0492506010810190505b6305f5e1008310611704576305f5e10083816116fa576116f9612223565b5b0492506008810190505b612710831061172957612710838161171f5761171e612223565b5b0492506004810190505b6064831061174c576064838161174257611741612223565b5b0492506002810190505b600a831061175b576001810190505b80915050919050565b5f604051905090565b5f5ffd5b5f5ffd5b5f7fffffffff0000000000000000000000000000000000000000000000000000000082169050919050565b6117a981611775565b81146117b3575f5ffd5b50565b5f813590506117c4816117a0565b92915050565b5f602082840312156117df576117de61176d565b5b5f6117ec848285016117b6565b91505092915050565b5f8115159050919050565b611809816117f5565b82525050565b5f6020820190506118225f830184611800565b92915050565b5f81519050919050565b5f82825260208201905092915050565b8281835e5f83830152505050565b5f601f19601f8301169050919050565b5f61186a82611828565b6118748185611832565b9350611884818560208601611842565b61188d81611850565b840191505092915050565b5f6020820190508181035f8301526118b08184611860565b905092915050565b5f819050919050565b6118ca816118b8565b81146118d4575f5ffd5b50565b5f813590506118e5816118c1565b92915050565b5f60208284031215611900576118ff61176d565b5b5f61190d848285016118d7565b91505092915050565b5f73ffffffffffffffffffffffffffffffffffffffff82169050919050565b5f61193f82611916565b9050919050565b61194f81611935565b82525050565b5f6020820190506119685f830184611946565b92915050565b61197781611935565b8114611981575f5ffd5b50565b5f813590506119928161196e565b92915050565b5f5f604083850312156119ae576119ad61176d565b5b5f6119bb85828601611984565b92505060206119cc858286016118d7565b9150509250929050565b5f5f5f606084860312156119ed576119ec61176d565b5b5f6119fa86828701611984565b9350506020611a0b86828701611984565b9250506040611a1c868287016118d7565b9150509250925092565b5f60208284031215611a3b57611a3a61176d565b5b5f611a4884828501611984565b91505092915050565b611a5a816118b8565b82525050565b5f602082019050611a735f830184611a51565b92915050565b611a82816117f5565b8114611a8c575f5ffd5b50565b5f81359050611a9d81611a79565b92915050565b5f5f60408385031215611ab957611ab861176d565b5b5f611ac685828601611984565b9250506020611ad785828601611a8f565b9150509250929050565b5f5ffd5b5f5ffd5b7f4e487b71000000000000000000000000000000000000000000000000000000005f52604160045260245ffd5b611b1f82611850565b810181811067ffffffffffffffff82111715611b3e57611b3d611ae9565b5b80604052505050565b5f611b50611764565b9050611b5c8282611b16565b919050565b5f67ffffffffffffffff821115611b7b57611b7a611ae9565b5b611b8482611850565b9050602081019050919050565b828183375f83830152505050565b5f611bb1611bac84611b61565b611b47565b905082815260208101848484011115611bcd57611bcc611ae5565b5b611bd8848285611b91565b509392505050565b5f82601f830112611bf457611bf3611ae1565b5b8135611c04848260208601611b9f565b91505092915050565b5f5f5f5f60808587031215611c2557611c2461176d565b5b5f611c3287828801611984565b9450506020611c4387828801611984565b9350506040611c54878288016118d7565b925050606085013567ffffffffffffffff811115611c7557611c74611771565b5b611c8187828801611be0565b91505092959194509250565b5f67ffffffffffffffff821115611ca757611ca6611ae9565b5b611cb082611850565b9050602081019050919050565b5f611ccf611cca84611c8d565b611b47565b905082815260208101848484011115611ceb57611cea611ae5565b5b611cf6848285611b91565b509392505050565b5f82601f830112611d1257611d11611ae1565b5b8135611d22848260208601611cbd565b91505092915050565b5f5f60408385031215611d4157611d4061176d565b5b5f611d4e85828601611984565b925050602083013567ffffffffffffffff811115611d6f57611d6e611771565b5b611d7b85828601611cfe565b9150509250929050565b5f5f60408385031215611d9b57611d9a61176d565b5b5f611da885828601611984565b9250506020611db985828601611984565b9150509250929050565b7f4e487b71000000000000000000000000000000000000000000000000000000005f52602260045260245ffd5b5f6002820490506001821680611e0757607f821691505b602082108103611e1a57611e19611dc3565b5b50919050565b5f606082019050611e335f830186611946565b611e406020830185611a51565b611e4d6040830184611946565b949350505050565b5f81905092915050565b5f611e6982611828565b611e738185611e55565b9350611e83818560208601611842565b80840191505092915050565b5f611e9a8285611e5f565b9150611ea68284611e5f565b91508190509392505050565b5f81519050919050565b5f82825260208201905092915050565b5f611ed682611eb2565b611ee08185611ebc565b9350611ef0818560208601611842565b611ef981611850565b840191505092915050565b5f608082019050611f175f830187611946565b611f246020830186611946565b611f316040830185611a51565b8181036060830152611f438184611ecc565b905095945050505050565b5f81519050611f5c816117a0565b92915050565b5f60208284031215611f7757611f7661176d565b5b5f611f8484828501611f4e565b91505092915050565b5f819050815f5260205f209050919050565b5f6020601f8301049050919050565b5f82821b905092915050565b5f60088302611fe97fffffffffffffffffffffffffffffffffffffffffffffffffffffffffffffffff82611fae565b611ff38683611fae565b95508019841693508086168417925050509392505050565b5f819050919050565b5f61202e612029612024846118b8565b61200b565b6118b8565b9050919050565b5f819050919050565b61204783612014565b61205b61205382612035565b848454611fba565b825550505050565b5f5f905090565b612072612063565b61207d81848461203e565b505050565b5b818110156120a0576120955f8261206a565b600181019050612083565b5050565b601f8211156120e5576120b681611f8d565b6120bf84611f9f565b810160208510156120ce578190505b6120e26120da85611f9f565b830182612082565b50505b505050565b5f82821c905092915050565b5f6121055f19846008026120ea565b1980831691505092915050565b5f61211d83836120f6565b9150826002028217905092915050565b61213682611828565b67ffffffffffffffff81111561214f5761214e611ae9565b5b6121598254611df0565b6121648282856120a4565b5f60209050601f831160018114612195575f8415612183578287015190505b61218d8582612112565b8655506121f4565b601f1984166121a386611f8d565b5f5b828110156121ca578489015182556001820191506020850194506020810190506121a5565b868310156121e757848901516121e3601f8916826120f6565b8355505b6001600288020188555050505b505050505050565b5f60408201905061220f5f830185611946565b61221c6020830184611a51565b9392505050565b7f4e487b71000000000000000000000000000000000000000000000000000000005f52601260045260245ffdfea264697066735822122090305650fbaa95c13e2dc19c51ecd83dc5e2d8545d0c3d79e96fd70e4ae0adf364736f6c634300081e0033","linkReferences":{}},"methodIdentifiers":{"approve(address,uint256)":"095ea7b3","balanceOf(address)":"70a08231","getApproved(uint256)":"081812fc","isApprovedForAll(address,address)":"e985e9c5","mint(address,string)":"d0def521","name()":"06fdde03","ownerOf(uint256)":"6352211e","safeTransferFrom(address,address,uint256)":"42842e0e","safeTransferFrom(address,address,uint256,bytes)":"b88d4fde","setApprovalForAll(address,bool)":"a22cb465","supportsInterface(bytes4)":"01ffc9a7","symbol()":"95d89b41","tokenURI(uint256)":"c87b56dd","transferFrom(address,address,uint256)":"23b872dd"},"id":20}