{"abi":[{"type":"constructor","inputs":[{"name":"_nft","type":"address","internalType":"address"},{"name":"_token","type":"address","internalType":"address"}],"stateMutability":"nonpayable"},{"type":"function","name":"buyNFT","inputs":[{"name":"tokenId","type":"uint256","internalType":"uint256"}],"outputs":[],"stateMutability":"nonpayable"},{"type":"function","name":"list","inputs":[{"name":"tokenId","type":"uint256","internalType":"uint256"},{"name":"price","type":"uint256","internalType":"uint256"}],"outputs":[],"stateMutability":"nonpayable"},{"type":"function","name":"listings","inputs":[{"name":"","type":"uint256","internalType":"uint256"}],"outputs":[{"name":"seller","type":"address","internalType":"address"},{"name":"price","type":"uint256","internalType":"uint256"}],"stateMutability":"view"},{"type":"function","name":"nft","inputs":[],"outputs":[{"name":"","type":"address","internalType":"contract MyNFT"}],"stateMutability":"view"},{"type":"function","name":"paymentToken","inputs":[],"outputs":[{"name":"","type":"address","internalType":"contract MyERC20V3"}],"stateMutability":"view"},{"type":"function","name":"tokensReceived","inputs":[{"name":"from","type":"address","internalType":"address"},{"name":"amount","type":"uint256","internalType":"uint256"},{"name":"data","type":"bytes","internalType":"bytes"}],"outputs":[{"name":"","type":"bool","internalType":"bool"}],"stateMutability":"nonpayable"},{"type":"event","name":"Listed","inputs":[{"name":"seller","type":"address","indexed":true,"internalType":"address"},{"name":"tokenId","type":"uint256","indexed":true,"internalType":"uint256"},{"name":"price","type":"uint256","indexed":false,"internalType":"uint256"}],"anonymous":false},{"type":"event","name":"Purchased","inputs":[{"name":"buyer","type":"address","indexed":true,"internalType":"address"},{"name":"tokenId","type":"uint256","indexed":true,"internalType":"uint256"},{"name":"price","type":"uint256","indexed":false,"internalType":"uint256"}],"anonymous":false}],"bytecode":{"object":"0x608060405234801561000f575f5ffd5b5060405161133638038061133683398181016040528101906100319190610115565b8160015f6101000a81548173ffffffffffffffffffffffffffffffffffffffff021916908373ffffffffffffffffffffffffffffffffffffffff160217905550805f5f6101000a81548173ffffffffffffffffffffffffffffffffffffffff021916908373ffffffffffffffffffffffffffffffffffffffff1602179055505050610153565b5f5ffd5b5f73ffffffffffffffffffffffffffffffffffffffff82169050919050565b5f6100e4826100bb565b9050919050565b6100f4816100da565b81146100fe575f5ffd5b50565b5f8151905061010f816100eb565b92915050565b5f5f6040838503121561012b5761012a6100b7565b5b5f61013885828601610101565b925050602061014985828601610101565b9150509250929050565b6111d6806101605f395ff3fe608060405234801561000f575f5ffd5b5060043610610060575f3560e01c80633013ce291461006457806347ccca021461008257806350fd7367146100a057806351ed8288146100bc578063d0314263146100d8578063de74e57b14610108575b5f5ffd5b61006c610139565b6040516100799190610acd565b60405180910390f35b61008a61015d565b6040516100979190610b06565b60405180910390f35b6100ba60048036038101906100b59190610b5a565b610182565b005b6100d660048036038101906100d19190610b98565b610435565b005b6100f260048036038101906100ed9190610c5f565b6107e1565b6040516100ff9190610cea565b60405180910390f35b610122600480360381019061011d9190610b98565b610a14565b604051610130929190610d21565b60405180910390f35b5f5f9054906101000a900473ffffffffffffffffffffffffffffffffffffffff1681565b60015f9054906101000a900473ffffffffffffffffffffffffffffffffffffffff1681565b3373ffffffffffffffffffffffffffffffffffffffff1660015f9054906101000a900473ffffffffffffffffffffffffffffffffffffffff1673ffffffffffffffffffffffffffffffffffffffff16636352211e846040518263ffffffff1660e01b81526004016101f39190610d48565b602060405180830381865afa15801561020e573d5f5f3e3d5ffd5b505050506040513d601f19601f820116820180604052508101906102329190610d75565b73ffffffffffffffffffffffffffffffffffffffff1614610288576040517f08c379a000000000000000000000000000000000000000000000000000000000815260040161027f90610dfa565b60405180910390fd5b5f81116102ca576040517f08c379a00000000000000000000000000000000000000000000000000000000081526004016102c190610e62565b60405180910390fd5b60015f9054906101000a900473ffffffffffffffffffffffffffffffffffffffff1673ffffffffffffffffffffffffffffffffffffffff166323b872dd3330856040518463ffffffff1660e01b815260040161032893929190610e80565b5f604051808303815f87803b15801561033f575f5ffd5b505af1158015610351573d5f5f3e3d5ffd5b5050505060405180604001604052803373ffffffffffffffffffffffffffffffffffffffff1681526020018281525060025f8481526020019081526020015f205f820151815f015f6101000a81548173ffffffffffffffffffffffffffffffffffffffff021916908373ffffffffffffffffffffffffffffffffffffffff16021790555060208201518160010155905050813373ffffffffffffffffffffffffffffffffffffffff167f6e16e8064e3c8254cef11e01e152416398602d7e8785f743f1c2f93a9a15ff35836040516104299190610d48565b60405180910390a35050565b5f60025f8381526020019081526020015f206040518060400160405290815f82015f9054906101000a900473ffffffffffffffffffffffffffffffffffffffff1673ffffffffffffffffffffffffffffffffffffffff1673ffffffffffffffffffffffffffffffffffffffff16815260200160018201548152505090505f73ffffffffffffffffffffffffffffffffffffffff163373ffffffffffffffffffffffffffffffffffffffff1603610520576040517f08c379a000000000000000000000000000000000000000000000000000000000815260040161051790610eff565b60405180910390fd5b3373ffffffffffffffffffffffffffffffffffffffff16815f015173ffffffffffffffffffffffffffffffffffffffff1603610591576040517f08c379a000000000000000000000000000000000000000000000000000000000815260040161058890610f67565b60405180910390fd5b5f8160200151116105d7576040517f08c379a00000000000000000000000000000000000000000000000000000000081526004016105ce90610fcf565b60405180910390fd5b5f5f5f9054906101000a900473ffffffffffffffffffffffffffffffffffffffff1673ffffffffffffffffffffffffffffffffffffffff166323b872dd33845f015185602001516040518463ffffffff1660e01b815260040161063c93929190610e80565b6020604051808303815f875af1158015610658573d5f5f3e3d5ffd5b505050506040513d601f19601f8201168201806040525081019061067c9190611017565b9050806106be576040517f08c379a00000000000000000000000000000000000000000000000000000000081526004016106b59061108c565b60405180910390fd5b60015f9054906101000a900473ffffffffffffffffffffffffffffffffffffffff1673ffffffffffffffffffffffffffffffffffffffff166323b872dd3033866040518463ffffffff1660e01b815260040161071c93929190610e80565b5f604051808303815f87803b158015610733575f5ffd5b505af1158015610745573d5f5f3e3d5ffd5b5050505060025f8481526020019081526020015f205f5f82015f6101000a81549073ffffffffffffffffffffffffffffffffffffffff0219169055600182015f90555050823373ffffffffffffffffffffffffffffffffffffffff167ff761777482b4b40d2bcc0d050cfba6829900a2d8b3484bd0244ec0feeb3db50484602001516040516107d49190610d48565b60405180910390a3505050565b5f5f5f9054906101000a900473ffffffffffffffffffffffffffffffffffffffff1673ffffffffffffffffffffffffffffffffffffffff163373ffffffffffffffffffffffffffffffffffffffff1614610870576040517f08c379a0000000000000000000000000000000000000000000000000000000008152600401610867906110f4565b60405180910390fd5b5f83838101906108809190610b98565b905060025f8281526020019081526020015f20600101548510156108d9576040517f08c379a00000000000000000000000000000000000000000000000000000000081526004016108d090611182565b60405180910390fd5b60015f9054906101000a900473ffffffffffffffffffffffffffffffffffffffff1673ffffffffffffffffffffffffffffffffffffffff166323b872dd3088846040518463ffffffff1660e01b815260040161093793929190610e80565b5f604051808303815f87803b15801561094e575f5ffd5b505af1158015610960573d5f5f3e3d5ffd5b5050505060025f8281526020019081526020015f205f5f82015f6101000a81549073ffffffffffffffffffffffffffffffffffffffff0219169055600182015f90555050808673ffffffffffffffffffffffffffffffffffffffff167ff761777482b4b40d2bcc0d050cfba6829900a2d8b3484bd0244ec0feeb3db50460025f8581526020019081526020015f20600101546040516109ff9190610d48565b60405180910390a36001915050949350505050565b6002602052805f5260405f205f91509050805f015f9054906101000a900473ffffffffffffffffffffffffffffffffffffffff16908060010154905082565b5f73ffffffffffffffffffffffffffffffffffffffff82169050919050565b5f819050919050565b5f610a95610a90610a8b84610a53565b610a72565b610a53565b9050919050565b5f610aa682610a7b565b9050919050565b5f610ab782610a9c565b9050919050565b610ac781610aad565b82525050565b5f602082019050610ae05f830184610abe565b92915050565b5f610af082610a9c565b9050919050565b610b0081610ae6565b82525050565b5f602082019050610b195f830184610af7565b92915050565b5f5ffd5b5f5ffd5b5f819050919050565b610b3981610b27565b8114610b43575f5ffd5b50565b5f81359050610b5481610b30565b92915050565b5f5f60408385031215610b7057610b6f610b1f565b5b5f610b7d85828601610b46565b9250506020610b8e85828601610b46565b9150509250929050565b5f60208284031215610bad57610bac610b1f565b5b5f610bba84828501610b46565b91505092915050565b5f610bcd82610a53565b9050919050565b610bdd81610bc3565b8114610be7575f5ffd5b50565b5f81359050610bf881610bd4565b92915050565b5f5ffd5b5f5ffd5b5f5ffd5b5f5f83601f840112610c1f57610c1e610bfe565b5b8235905067ffffffffffffffff811115610c3c57610c3b610c02565b5b602083019150836001820283011115610c5857610c57610c06565b5b9250929050565b5f5f5f5f60608587031215610c7757610c76610b1f565b5b5f610c8487828801610bea565b9450506020610c9587828801610b46565b935050604085013567ffffffffffffffff811115610cb657610cb5610b23565b5b610cc287828801610c0a565b925092505092959194509250565b5f8115159050919050565b610ce481610cd0565b82525050565b5f602082019050610cfd5f830184610cdb565b92915050565b610d0c81610bc3565b82525050565b610d1b81610b27565b82525050565b5f604082019050610d345f830185610d03565b610d416020830184610d12565b9392505050565b5f602082019050610d5b5f830184610d12565b92915050565b5f81519050610d6f81610bd4565b92915050565b5f60208284031215610d8a57610d89610b1f565b5b5f610d9784828501610d61565b91505092915050565b5f82825260208201905092915050565b7f4e6f74206f776e657200000000000000000000000000000000000000000000005f82015250565b5f610de4600983610da0565b9150610def82610db0565b602082019050919050565b5f6020820190508181035f830152610e1181610dd8565b9050919050565b7f5072696365206d75737420626520706f736974697665000000000000000000005f82015250565b5f610e4c601683610da0565b9150610e5782610e18565b602082019050919050565b5f6020820190508181035f830152610e7981610e40565b9050919050565b5f606082019050610e935f830186610d03565b610ea06020830185610d03565b610ead6040830184610d12565b949350505050565b7f6572726f722061646472657373000000000000000000000000000000000000005f82015250565b5f610ee9600d83610da0565b9150610ef482610eb5565b602082019050919050565b5f6020820190508181035f830152610f1681610edd565b9050919050565b7f4e4654206e6f74206f776e6572000000000000000000000000000000000000005f82015250565b5f610f51600d83610da0565b9150610f5c82610f1d565b602082019050919050565b5f6020820190508181035f830152610f7e81610f45565b9050919050565b7f4e4654206e6f74206c69737465640000000000000000000000000000000000005f82015250565b5f610fb9600e83610da0565b9150610fc482610f85565b602082019050919050565b5f6020820190508181035f830152610fe681610fad565b9050919050565b610ff681610cd0565b8114611000575f5ffd5b50565b5f8151905061101181610fed565b92915050565b5f6020828403121561102c5761102b610b1f565b5b5f61103984828501611003565b91505092915050565b7f546f6b656e207472616e73666572206661696c656400000000000000000000005f82015250565b5f611076601583610da0565b915061108182611042565b602082019050919050565b5f6020820190508181035f8301526110a38161106a565b9050919050565b7f4d79455243323056333a20696e76616c696420746f6b656e00000000000000005f82015250565b5f6110de601883610da0565b91506110e9826110aa565b602082019050919050565b5f6020820190508181035f83015261110b816110d2565b9050919050565b7f4d79455243323056333a20616d6f756e74206d757374207468616e20707269635f8201527f6500000000000000000000000000000000000000000000000000000000000000602082015250565b5f61116c602183610da0565b915061117782611112565b604082019050919050565b5f6020820190508181035f83015261119981611160565b905091905056fea26469706673582212206419a5c3865bae11218900b72066c4b5182581961e0e11455a5777583c90af5664736f6c634300081e0033","linkReferences":{}},"methodIdentifiers":{"buyNFT(uint256)":"51ed8288","list(uint256,uint256)":"50fd7367","listings(uint256)":"de74e57b","nft()":"47ccca02","paymentToken()":"3013ce29","tokensReceived(address,uint256,bytes)":"d0314263"},"id":21}