{"abi":[{"type":"constructor","inputs":[{"name":"_feeToSetter","type":"address","internalType":"address"}],"stateMutability":"nonpayable"},{"type":"function","name":"PAIR_HASH","inputs":[],"outputs":[{"name":"","type":"bytes32","internalType":"bytes32"}],"stateMutability":"view"},{"type":"function","name":"allPairs","inputs":[{"name":"","type":"uint256","internalType":"uint256"}],"outputs":[{"name":"","type":"address","internalType":"address"}],"stateMutability":"view"},{"type":"function","name":"allPairsLength","inputs":[],"outputs":[{"name":"","type":"uint256","internalType":"uint256"}],"stateMutability":"view"},{"type":"function","name":"createPair","inputs":[{"name":"tokenA","type":"address","internalType":"address"},{"name":"tokenB","type":"address","internalType":"address"}],"outputs":[{"name":"pair","type":"address","internalType":"address"}],"stateMutability":"nonpayable"},{"type":"function","name":"feeTo","inputs":[],"outputs":[{"name":"","type":"address","internalType":"address"}],"stateMutability":"view"},{"type":"function","name":"feeToSetter","inputs":[],"outputs":[{"name":"","type":"address","internalType":"address"}],"stateMutability":"view"},{"type":"function","name":"getPair","inputs":[{"name":"","type":"address","internalType":"address"},{"name":"","type":"address","internalType":"address"}],"outputs":[{"name":"","type":"address","internalType":"address"}],"stateMutability":"view"},{"type":"function","name":"setFeeTo","inputs":[{"name":"_feeTo","type":"address","internalType":"address"}],"outputs":[],"stateMutability":"nonpayable"},{"type":"function","name":"setFeeToSetter","inputs":[{"name":"_feeToSetter","type":"address","internalType":"address"}],"outputs":[],"stateMutability":"nonpayable"},{"type":"event","name":"PairCreated","inputs":[{"name":"token0","type":"address","indexed":true,"internalType":"address"},{"name":"token1","type":"address","indexed":true,"internalType":"address"},{"name":"pair","type":"address","indexed":false,"internalType":"address"},{"name":"","type":"uint256","indexed":false,"internalType":"uint256"}],"anonymous":false}],"bytecode":{"object":"0x608060405234801561000f575f5ffd5b50604051614a69380380614a69833981810160405281019061003191906100d5565b8060015f6101000a81548173ffffffffffffffffffffffffffffffffffffffff021916908373ffffffffffffffffffffffffffffffffffffffff16021790555050610100565b5f5ffd5b5f73ffffffffffffffffffffffffffffffffffffffff82169050919050565b5f6100a48261007b565b9050919050565b6100b48161009a565b81146100be575f5ffd5b50565b5f815190506100cf816100ab565b92915050565b5f602082840312156100ea576100e9610077565b5b5f6100f7848285016100c1565b91505092915050565b61495c8061010d5f395ff3fe608060405234801561000f575f5ffd5b5060043610610091575f3560e01c806364f91c721161006457806364f91c721461011f578063a2e74af61461013d578063c9c6539614610159578063e6a4390514610189578063f46901ed146101b957610091565b8063017e7e5814610095578063094b7415146100b35780631e3dd18b146100d1578063574f2ba314610101575b5f5ffd5b61009d6101d5565b6040516100aa91906109e1565b60405180910390f35b6100bb6101f9565b6040516100c891906109e1565b60405180910390f35b6100eb60048036038101906100e69190610a31565b61021e565b6040516100f891906109e1565b60405180910390f35b610109610259565b6040516101169190610a6b565b60405180910390f35b610127610265565b6040516101349190610a9c565b60405180910390f35b61015760048036038101906101529190610adf565b610293565b005b610173600480360381019061016e9190610b0a565b610365565b60405161018091906109e1565b60405180910390f35b6101a3600480360381019061019e9190610b0a565b610887565b6040516101b091906109e1565b60405180910390f35b6101d360048036038101906101ce9190610adf565b6108c4565b005b5f5f9054906101000a900473ffffffffffffffffffffffffffffffffffffffff1681565b60015f9054906101000a900473ffffffffffffffffffffffffffffffffffffffff1681565b6003818154811061022d575f80fd5b905f5260205f20015f915054906101000a900473ffffffffffffffffffffffffffffffffffffffff1681565b5f600380549050905090565b6040518060200161027590610995565b6020820181038252601f19601f820116604052508051906020012081565b60015f9054906101000a900473ffffffffffffffffffffffffffffffffffffffff1673ffffffffffffffffffffffffffffffffffffffff163373ffffffffffffffffffffffffffffffffffffffff1614610322576040517f08c379a000000000000000000000000000000000000000000000000000000000815260040161031990610ba2565b60405180910390fd5b8060015f6101000a81548173ffffffffffffffffffffffffffffffffffffffff021916908373ffffffffffffffffffffffffffffffffffffffff16021790555050565b5f8173ffffffffffffffffffffffffffffffffffffffff168373ffffffffffffffffffffffffffffffffffffffff16036103d4576040517f08c379a00000000000000000000000000000000000000000000000000000000081526004016103cb90610c0a565b60405180910390fd5b5f5f8373ffffffffffffffffffffffffffffffffffffffff168573ffffffffffffffffffffffffffffffffffffffff1610610410578385610413565b84845b915091505f73ffffffffffffffffffffffffffffffffffffffff168273ffffffffffffffffffffffffffffffffffffffff1603610485576040517f08c379a000000000000000000000000000000000000000000000000000000000815260040161047c90610c72565b60405180910390fd5b5f73ffffffffffffffffffffffffffffffffffffffff1660025f8473ffffffffffffffffffffffffffffffffffffffff1673ffffffffffffffffffffffffffffffffffffffff1681526020019081526020015f205f8373ffffffffffffffffffffffffffffffffffffffff1673ffffffffffffffffffffffffffffffffffffffff1681526020019081526020015f205f9054906101000a900473ffffffffffffffffffffffffffffffffffffffff1673ffffffffffffffffffffffffffffffffffffffff161461058a576040517f08c379a000000000000000000000000000000000000000000000000000000000815260040161058190610cda565b60405180910390fd5b818160405160200161059d929190610d3d565b604051602081830303815290604052805190602001206040516105bf90610995565b8190604051809103905ff59050801580156105dc573d5f5f3e3d5ffd5b5092508273ffffffffffffffffffffffffffffffffffffffff1663485cc95583836040518363ffffffff1660e01b815260040161061a929190610d68565b5f604051808303815f87803b158015610631575f5ffd5b505af1158015610643573d5f5f3e3d5ffd5b505050508260025f8473ffffffffffffffffffffffffffffffffffffffff1673ffffffffffffffffffffffffffffffffffffffff1681526020019081526020015f205f8373ffffffffffffffffffffffffffffffffffffffff1673ffffffffffffffffffffffffffffffffffffffff1681526020019081526020015f205f6101000a81548173ffffffffffffffffffffffffffffffffffffffff021916908373ffffffffffffffffffffffffffffffffffffffff1602179055508260025f8373ffffffffffffffffffffffffffffffffffffffff1673ffffffffffffffffffffffffffffffffffffffff1681526020019081526020015f205f8473ffffffffffffffffffffffffffffffffffffffff1673ffffffffffffffffffffffffffffffffffffffff1681526020019081526020015f205f6101000a81548173ffffffffffffffffffffffffffffffffffffffff021916908373ffffffffffffffffffffffffffffffffffffffff160217905550600383908060018154018082558091505060019003905f5260205f20015f9091909190916101000a81548173ffffffffffffffffffffffffffffffffffffffff021916908373ffffffffffffffffffffffffffffffffffffffff1602179055508073ffffffffffffffffffffffffffffffffffffffff168273ffffffffffffffffffffffffffffffffffffffff167f0d3648bd0f6ba80134a33ba9275ac585d9d315f0ad8355cddefde31afa28d0e985600380549050604051610877929190610d8f565b60405180910390a3505092915050565b6002602052815f5260405f20602052805f5260405f205f915091509054906101000a900473ffffffffffffffffffffffffffffffffffffffff1681565b60015f9054906101000a900473ffffffffffffffffffffffffffffffffffffffff1673ffffffffffffffffffffffffffffffffffffffff163373ffffffffffffffffffffffffffffffffffffffff1614610953576040517f08c379a000000000000000000000000000000000000000000000000000000000815260040161094a90610ba2565b60405180910390fd5b805f5f6101000a81548173ffffffffffffffffffffffffffffffffffffffff021916908373ffffffffffffffffffffffffffffffffffffffff16021790555050565b613b7080610db783390190565b5f73ffffffffffffffffffffffffffffffffffffffff82169050919050565b5f6109cb826109a2565b9050919050565b6109db816109c1565b82525050565b5f6020820190506109f45f8301846109d2565b92915050565b5f5ffd5b5f819050919050565b610a10816109fe565b8114610a1a575f5ffd5b50565b5f81359050610a2b81610a07565b92915050565b5f60208284031215610a4657610a456109fa565b5b5f610a5384828501610a1d565b91505092915050565b610a65816109fe565b82525050565b5f602082019050610a7e5f830184610a5c565b92915050565b5f819050919050565b610a9681610a84565b82525050565b5f602082019050610aaf5f830184610a8d565b92915050565b610abe816109c1565b8114610ac8575f5ffd5b50565b5f81359050610ad981610ab5565b92915050565b5f60208284031215610af457610af36109fa565b5b5f610b0184828501610acb565b91505092915050565b5f5f60408385031215610b2057610b1f6109fa565b5b5f610b2d85828601610acb565b9250506020610b3e85828601610acb565b9150509250929050565b5f82825260208201905092915050565b7f556e697377617056323a20464f5242494444454e0000000000000000000000005f82015250565b5f610b8c601483610b48565b9150610b9782610b58565b602082019050919050565b5f6020820190508181035f830152610bb981610b80565b9050919050565b7f556e697377617056323a204944454e544943414c5f41444452455353455300005f82015250565b5f610bf4601e83610b48565b9150610bff82610bc0565b602082019050919050565b5f6020820190508181035f830152610c2181610be8565b9050919050565b7f556e697377617056323a205a45524f5f414444524553530000000000000000005f82015250565b5f610c5c601783610b48565b9150610c6782610c28565b602082019050919050565b5f6020820190508181035f830152610c8981610c50565b9050919050565b7f556e697377617056323a20504149525f455849535453000000000000000000005f82015250565b5f610cc4601683610b48565b9150610ccf82610c90565b602082019050919050565b5f6020820190508181035f830152610cf181610cb8565b9050919050565b5f8160601b9050919050565b5f610d0e82610cf8565b9050919050565b5f610d1f82610d04565b9050919050565b610d37610d32826109c1565b610d15565b82525050565b5f610d488285610d26565b601482019150610d588284610d26565b6014820191508190509392505050565b5f604082019050610d7b5f8301856109d2565b610d8860208301846109d2565b9392505050565b5f604082019050610da25f8301856109d2565b610daf6020830184610a5c565b939250505056fe60806040526001600c55348015610014575f5ffd5b507f8b73c3c69bb8fe3d512ecc4cf759cc79239f7b179b0ffacaa9a75d522b39400f6040518060400160405280600a81526020017f556e697377617020563200000000000000000000000000000000000000000000815250805190602001206040518060400160405280600181526020017f31000000000000000000000000000000000000000000000000000000000000008152508051906020012046306040516020016100c6959493929190610196565b604051602081830303815290604052805190602001206003819055503360055f6101000a81548173ffffffffffffffffffffffffffffffffffffffff021916908373ffffffffffffffffffffffffffffffffffffffff1602179055506101e7565b5f819050919050565b61013981610127565b82525050565b5f819050919050565b6101518161013f565b82525050565b5f73ffffffffffffffffffffffffffffffffffffffff82169050919050565b5f61018082610157565b9050919050565b61019081610176565b82525050565b5f60a0820190506101a95f830188610130565b6101b66020830187610130565b6101c36040830186610130565b6101d06060830185610148565b6101dd6080830184610187565b9695505050505050565b61397c806101f45f395ff3fe608060405234801561000f575f5ffd5b50600436106101a7575f3560e01c80636a627842116100f7578063ba9a7a5611610095578063d21220a71161006f578063d21220a7146104d8578063d505accf146104f6578063dd62ed3e14610512578063fff6cae914610542576101a7565b8063ba9a7a5614610480578063bc25cf771461049e578063c45a0155146104ba576101a7565b80637ecebe00116100d15780637ecebe00146103d157806389afcb441461040157806395d89b4114610432578063a9059cbb14610450576101a7565b80636a6278421461035357806370a08231146103835780637464fc3d146103b3576101a7565b806323b872dd116101645780633644e5151161013e5780633644e515146102dd578063485cc955146102fb5780635909c0d5146103175780635a3d549314610335576101a7565b806323b872dd1461027157806330adf81f146102a1578063313ce567146102bf576101a7565b8063022c0d9f146101ab57806306fdde03146101c75780630902f1ac146101e5578063095ea7b3146102055780630dfe16811461023557806318160ddd14610253575b5f5ffd5b6101c560048036038101906101c091906128da565b61054c565b005b6101cf610b42565b6040516101dc91906129ce565b60405180910390f35b6101ed610b7b565b6040516101fc93929190612a34565b60405180910390f35b61021f600480360381019061021a9190612a69565b610bd5565b60405161022c9190612ac1565b60405180910390f35b61023d610beb565b60405161024a9190612ae9565b60405180910390f35b61025b610c10565b6040516102689190612b11565b60405180910390f35b61028b60048036038101906102869190612b2a565b610c15565b6040516102989190612ac1565b60405180910390f35b6102a9610d5a565b6040516102b69190612b92565b60405180910390f35b6102c7610d80565b6040516102d49190612bc6565b60405180910390f35b6102e5610d85565b6040516102f29190612b92565b60405180910390f35b61031560048036038101906103109190612bdf565b610d8b565b005b61031f610e9e565b60405161032c9190612b11565b60405180910390f35b61033d610ea4565b60405161034a9190612b11565b60405180910390f35b61036d60048036038101906103689190612c1d565b610eaa565b60405161037a9190612b11565b60405180910390f35b61039d60048036038101906103989190612c1d565b61124f565b6040516103aa9190612b11565b60405180910390f35b6103bb611264565b6040516103c89190612b11565b60405180910390f35b6103eb60048036038101906103e69190612c1d565b61126a565b6040516103f89190612b11565b60405180910390f35b61041b60048036038101906104169190612c1d565b61127f565b604051610429929190612c48565b60405180910390f35b61043a6116fb565b60405161044791906129ce565b60405180910390f35b61046a60048036038101906104659190612a69565b611734565b6040516104779190612ac1565b60405180910390f35b61048861174a565b6040516104959190612b11565b60405180910390f35b6104b860048036038101906104b39190612c1d565b611750565b005b6104c2611964565b6040516104cf9190612ae9565b60405180910390f35b6104e0611989565b6040516104ed9190612ae9565b60405180910390f35b610510600480360381019061050b9190612cc3565b6119ae565b005b61052c60048036038101906105279190612bdf565b611bcc565b6040516105399190612b11565b60405180910390f35b61054a611bec565b005b6001600c5414610591576040517f08c379a000000000000000000000000000000000000000000000000000000000815260040161058890612daa565b60405180910390fd5b5f600c819055505f8511806105a557505f84115b6105e4576040517f08c379a00000000000000000000000000000000000000000000000000000000081526004016105db90612e38565b60405180910390fd5b5f5f6105ee610b7b565b5091509150816dffffffffffffffffffffffffffff16871080156106215750806dffffffffffffffffffffffffffff1686105b610660576040517f08c379a000000000000000000000000000000000000000000000000000000000815260040161065790612ec6565b60405180910390fd5b5f5f5f60065f9054906101000a900473ffffffffffffffffffffffffffffffffffffffff1690505f60075f9054906101000a900473ffffffffffffffffffffffffffffffffffffffff1690508173ffffffffffffffffffffffffffffffffffffffff168973ffffffffffffffffffffffffffffffffffffffff161415801561071457508073ffffffffffffffffffffffffffffffffffffffff168973ffffffffffffffffffffffffffffffffffffffff1614155b610753576040517f08c379a000000000000000000000000000000000000000000000000000000000815260040161074a90612f2e565b60405180910390fd5b5f8b111561076757610766828a8d611db5565b5b5f8a111561077b5761077a818a8c611db5565b5b5f8888905011156107f5578873ffffffffffffffffffffffffffffffffffffffff166310d1e85c338d8d8c8c6040518663ffffffff1660e01b81526004016107c7959493929190612f96565b5f604051808303815f87803b1580156107de575f5ffd5b505af11580156107f0573d5f5f3e3d5ffd5b505050505b8173ffffffffffffffffffffffffffffffffffffffff166370a08231306040518263ffffffff1660e01b815260040161082e9190612ae9565b602060405180830381865afa158015610849573d5f5f3e3d5ffd5b505050506040513d601f19601f8201168201806040525081019061086d9190612ff6565b93508073ffffffffffffffffffffffffffffffffffffffff166370a08231306040518263ffffffff1660e01b81526004016108a89190612ae9565b602060405180830381865afa1580156108c3573d5f5f3e3d5ffd5b505050506040513d601f19601f820116820180604052508101906108e79190612ff6565b925050505f89856dffffffffffffffffffffffffffff16610908919061304e565b8311610914575f61093c565b89856dffffffffffffffffffffffffffff16610930919061304e565b8361093b919061304e565b5b90505f89856dffffffffffffffffffffffffffff1661095b919061304e565b8311610967575f61098f565b89856dffffffffffffffffffffffffffff16610983919061304e565b8361098e919061304e565b5b90505f82118061099e57505f81115b6109dd576040517f08c379a00000000000000000000000000000000000000000000000000000000081526004016109d4906130f1565b60405180910390fd5b5f6003836109eb919061310f565b6103e8866109f9919061310f565b610a03919061304e565b90505f600383610a13919061310f565b6103e886610a21919061310f565b610a2b919061304e565b9050620f4240876dffffffffffffffffffffffffffff16896dffffffffffffffffffffffffffff16610a5d919061310f565b610a67919061310f565b8183610a73919061310f565b1015610ab4576040517f08c379a0000000000000000000000000000000000000000000000000000000008152600401610aab9061319a565b60405180910390fd5b5050610ac284848888611f04565b8873ffffffffffffffffffffffffffffffffffffffff163373ffffffffffffffffffffffffffffffffffffffff167fd78ad95fa46c994b6551d0da85fc275fe613ce37657fb8d5e3d130840159d82284848f8f604051610b2594939291906131b8565b60405180910390a35050505050506001600c819055505050505050565b6040518060400160405280600a81526020017f556e69737761702056320000000000000000000000000000000000000000000081525081565b5f5f5f60085f9054906101000a90046dffffffffffffffffffffffffffff1692506008600e9054906101000a90046dffffffffffffffffffffffffffff1691506008601c9054906101000a900463ffffffff169050909192565b5f610be13384846121c2565b6001905092915050565b60065f9054906101000a900473ffffffffffffffffffffffffffffffffffffffff1681565b5f5481565b5f7fffffffffffffffffffffffffffffffffffffffffffffffffffffffffffffffff60025f8673ffffffffffffffffffffffffffffffffffffffff1673ffffffffffffffffffffffffffffffffffffffff1681526020019081526020015f205f3373ffffffffffffffffffffffffffffffffffffffff1673ffffffffffffffffffffffffffffffffffffffff1681526020019081526020015f205414610d44578160025f8673ffffffffffffffffffffffffffffffffffffffff1673ffffffffffffffffffffffffffffffffffffffff1681526020019081526020015f205f3373ffffffffffffffffffffffffffffffffffffffff1673ffffffffffffffffffffffffffffffffffffffff1681526020019081526020015f205f828254610d3c919061304e565b925050819055505b610d4f8484846122a9565b600190509392505050565b7f6e71edae12b1b97f4d1f60370fef10105fa2faae0126114a169c64845d6126c95f1b81565b601281565b60035481565b60055f9054906101000a900473ffffffffffffffffffffffffffffffffffffffff1673ffffffffffffffffffffffffffffffffffffffff163373ffffffffffffffffffffffffffffffffffffffff1614610e1a576040517f08c379a0000000000000000000000000000000000000000000000000000000008152600401610e1190613245565b60405180910390fd5b8160065f6101000a81548173ffffffffffffffffffffffffffffffffffffffff021916908373ffffffffffffffffffffffffffffffffffffffff1602179055508060075f6101000a81548173ffffffffffffffffffffffffffffffffffffffff021916908373ffffffffffffffffffffffffffffffffffffffff1602179055505050565b60095481565b600a5481565b5f6001600c5414610ef0576040517f08c379a0000000000000000000000000000000000000000000000000000000008152600401610ee790612daa565b60405180910390fd5b5f600c819055505f5f610f01610b7b565b50915091505f60065f9054906101000a900473ffffffffffffffffffffffffffffffffffffffff1673ffffffffffffffffffffffffffffffffffffffff166370a08231306040518263ffffffff1660e01b8152600401610f619190612ae9565b602060405180830381865afa158015610f7c573d5f5f3e3d5ffd5b505050506040513d601f19601f82011682018060405250810190610fa09190612ff6565b90505f60075f9054906101000a900473ffffffffffffffffffffffffffffffffffffffff1673ffffffffffffffffffffffffffffffffffffffff166370a08231306040518263ffffffff1660e01b8152600401610ffd9190612ae9565b602060405180830381865afa158015611018573d5f5f3e3d5ffd5b505050506040513d601f19601f8201168201806040525081019061103c9190612ff6565b90505f846dffffffffffffffffffffffffffff168361105b919061304e565b90505f846dffffffffffffffffffffffffffff168361107a919061304e565b90505f61108787876123b9565b90505f5f5490505f81036110c9576103e86110ac84866110a7919061310f565b612557565b6110b6919061304e565b98506110c45f6103e86125ce565b611122565b61111f886dffffffffffffffffffffffffffff1682866110e9919061310f565b6110f39190613290565b886dffffffffffffffffffffffffffff168386611110919061310f565b61111a9190613290565b6126a1565b98505b5f8911611164576040517f08c379a000000000000000000000000000000000000000000000000000000000815260040161115b90613330565b60405180910390fd5b61116e8a8a6125ce565b61117a86868a8a611f04565b81156111ea576008600e9054906101000a90046dffffffffffffffffffffffffffff166dffffffffffffffffffffffffffff1660085f9054906101000a90046dffffffffffffffffffffffffffff166dffffffffffffffffffffffffffff166111e3919061310f565b600b819055505b3373ffffffffffffffffffffffffffffffffffffffff167f4c209b5fc8ad50758f13e2e1088ba56a560dff690a1c6fef26394f4c03821c4f8585604051611232929190612c48565b60405180910390a250505050505050506001600c81905550919050565b6001602052805f5260405f205f915090505481565b600b5481565b6004602052805f5260405f205f915090505481565b5f5f6001600c54146112c6576040517f08c379a00000000000000000000000000000000000000000000000000000000081526004016112bd90612daa565b60405180910390fd5b5f600c819055505f5f6112d7610b7b565b50915091505f60065f9054906101000a900473ffffffffffffffffffffffffffffffffffffffff1690505f60075f9054906101000a900473ffffffffffffffffffffffffffffffffffffffff1690505f8273ffffffffffffffffffffffffffffffffffffffff166370a08231306040518263ffffffff1660e01b81526004016113609190612ae9565b602060405180830381865afa15801561137b573d5f5f3e3d5ffd5b505050506040513d601f19601f8201168201806040525081019061139f9190612ff6565b90505f8273ffffffffffffffffffffffffffffffffffffffff166370a08231306040518263ffffffff1660e01b81526004016113db9190612ae9565b602060405180830381865afa1580156113f6573d5f5f3e3d5ffd5b505050506040513d601f19601f8201168201806040525081019061141a9190612ff6565b90505f60015f3073ffffffffffffffffffffffffffffffffffffffff1673ffffffffffffffffffffffffffffffffffffffff1681526020019081526020015f205490505f61146888886123b9565b90505f5f54905080858461147c919061310f565b6114869190613290565b9a50808484611495919061310f565b61149f9190613290565b99505f8b1180156114af57505f8a115b6114ee576040517f08c379a00000000000000000000000000000000000000000000000000000000081526004016114e5906133be565b60405180910390fd5b6114f830846126b9565b611503878d8d611db5565b61150e868d8c611db5565b8673ffffffffffffffffffffffffffffffffffffffff166370a08231306040518263ffffffff1660e01b81526004016115479190612ae9565b602060405180830381865afa158015611562573d5f5f3e3d5ffd5b505050506040513d601f19601f820116820180604052508101906115869190612ff6565b94508573ffffffffffffffffffffffffffffffffffffffff166370a08231306040518263ffffffff1660e01b81526004016115c19190612ae9565b602060405180830381865afa1580156115dc573d5f5f3e3d5ffd5b505050506040513d601f19601f820116820180604052508101906116009190612ff6565b935061160e85858b8b611f04565b811561167e576008600e9054906101000a90046dffffffffffffffffffffffffffff166dffffffffffffffffffffffffffff1660085f9054906101000a90046dffffffffffffffffffffffffffff166dffffffffffffffffffffffffffff16611677919061310f565b600b819055505b8b73ffffffffffffffffffffffffffffffffffffffff163373ffffffffffffffffffffffffffffffffffffffff167fdccd412f0b1252819cb1fd330b93224ca42612892bb3f4f789976e6d819364968d8d6040516116dd929190612c48565b60405180910390a35050505050505050506001600c81905550915091565b6040518060400160405280600681526020017f554e492d5632000000000000000000000000000000000000000000000000000081525081565b5f6117403384846122a9565b6001905092915050565b6103e881565b6001600c5414611795576040517f08c379a000000000000000000000000000000000000000000000000000000000815260040161178c90612daa565b60405180910390fd5b5f600c819055505f60065f9054906101000a900473ffffffffffffffffffffffffffffffffffffffff1690505f60075f9054906101000a900473ffffffffffffffffffffffffffffffffffffffff16905061189e828460085f9054906101000a90046dffffffffffffffffffffffffffff166dffffffffffffffffffffffffffff168573ffffffffffffffffffffffffffffffffffffffff166370a08231306040518263ffffffff1660e01b81526004016118509190612ae9565b602060405180830381865afa15801561186b573d5f5f3e3d5ffd5b505050506040513d601f19601f8201168201806040525081019061188f9190612ff6565b611899919061304e565b611db5565b61195781846008600e9054906101000a90046dffffffffffffffffffffffffffff166dffffffffffffffffffffffffffff168473ffffffffffffffffffffffffffffffffffffffff166370a08231306040518263ffffffff1660e01b81526004016119099190612ae9565b602060405180830381865afa158015611924573d5f5f3e3d5ffd5b505050506040513d601f19601f820116820180604052508101906119489190612ff6565b611952919061304e565b611db5565b50506001600c8190555050565b60055f9054906101000a900473ffffffffffffffffffffffffffffffffffffffff1681565b60075f9054906101000a900473ffffffffffffffffffffffffffffffffffffffff1681565b428410156119f1576040517f08c379a00000000000000000000000000000000000000000000000000000000081526004016119e890613426565b60405180910390fd5b5f6003547f6e71edae12b1b97f4d1f60370fef10105fa2faae0126114a169c64845d6126c95f1b89898960045f8e73ffffffffffffffffffffffffffffffffffffffff1673ffffffffffffffffffffffffffffffffffffffff1681526020019081526020015f205f815480929190611a6890613444565b919050558a604051602001611a829695949392919061348b565b60405160208183030381529060405280519060200120604051602001611aa992919061355e565b6040516020818303038152906040528051906020012090505f6001828686866040515f8152602001604052604051611ae49493929190613594565b6020604051602081039080840390855afa158015611b04573d5f5f3e3d5ffd5b5050506020604051035190505f73ffffffffffffffffffffffffffffffffffffffff168173ffffffffffffffffffffffffffffffffffffffff1614158015611b7757508873ffffffffffffffffffffffffffffffffffffffff168173ffffffffffffffffffffffffffffffffffffffff16145b611bb6576040517f08c379a0000000000000000000000000000000000000000000000000000000008152600401611bad90613621565b60405180910390fd5b611bc18989896121c2565b505050505050505050565b6002602052815f5260405f20602052805f5260405f205f91509150505481565b6001600c5414611c31576040517f08c379a0000000000000000000000000000000000000000000000000000000008152600401611c2890612daa565b60405180910390fd5b5f600c81905550611dab60065f9054906101000a900473ffffffffffffffffffffffffffffffffffffffff1673ffffffffffffffffffffffffffffffffffffffff166370a08231306040518263ffffffff1660e01b8152600401611c959190612ae9565b602060405180830381865afa158015611cb0573d5f5f3e3d5ffd5b505050506040513d601f19601f82011682018060405250810190611cd49190612ff6565b60075f9054906101000a900473ffffffffffffffffffffffffffffffffffffffff1673ffffffffffffffffffffffffffffffffffffffff166370a08231306040518263ffffffff1660e01b8152600401611d2e9190612ae9565b602060405180830381865afa158015611d49573d5f5f3e3d5ffd5b505050506040513d601f19601f82011682018060405250810190611d6d9190612ff6565b60085f9054906101000a90046dffffffffffffffffffffffffffff166008600e9054906101000a90046dffffffffffffffffffffffffffff16611f04565b6001600c81905550565b5f5f8473ffffffffffffffffffffffffffffffffffffffff1663a9059cbb60e01b8585604051602401611de992919061363f565b604051602081830303815290604052907bffffffffffffffffffffffffffffffffffffffffffffffffffffffff19166020820180517bffffffffffffffffffffffffffffffffffffffffffffffffffffffff8381831617835250505050604051611e5391906136aa565b5f604051808303815f865af19150503d805f8114611e8c576040519150601f19603f3d011682016040523d82523d5f602084013e611e91565b606091505b5091509150818015611ebe57505f81511480611ebd575080806020019051810190611ebc91906136ea565b5b5b611efd576040517f08c379a0000000000000000000000000000000000000000000000000000000008152600401611ef49061375f565b60405180910390fd5b5050505050565b6dffffffffffffffffffffffffffff80168411158015611f3457506dffffffffffffffffffffffffffff80168311155b611f73576040517f08c379a0000000000000000000000000000000000000000000000000000000008152600401611f6a906137c7565b60405180910390fd5b5f64010000000042611f8591906137e5565b90505f6008601c9054906101000a900463ffffffff16820390505f8163ffffffff16118015611fc457505f846dffffffffffffffffffffffffffff1614155b8015611fe057505f836dffffffffffffffffffffffffffff1614155b156120c0578063ffffffff1661202585611ff98661278c565b7bffffffffffffffffffffffffffffffffffffffffffffffffffffffff166127bf90919063ffffffff16565b7bffffffffffffffffffffffffffffffffffffffffffffffffffffffff160260095f82825401925050819055508063ffffffff16612092846120668761278c565b7bffffffffffffffffffffffffffffffffffffffffffffffffffffffff166127bf90919063ffffffff16565b7bffffffffffffffffffffffffffffffffffffffffffffffffffffffff1602600a5f82825401925050819055505b508460085f6101000a8154816dffffffffffffffffffffffffffff02191690836dffffffffffffffffffffffffffff160217905550836008600e6101000a8154816dffffffffffffffffffffffffffff02191690836dffffffffffffffffffffffffffff160217905550806008601c6101000a81548163ffffffff021916908363ffffffff1602179055507f1c411e9a96e071241c2f21f7726b17ae89e3cab4c78be50e062b03a9fffbbad160085f9054906101000a90046dffffffffffffffffffffffffffff166008600e9054906101000a90046dffffffffffffffffffffffffffff166040516121b3929190613815565b60405180910390a15050505050565b8060025f8573ffffffffffffffffffffffffffffffffffffffff1673ffffffffffffffffffffffffffffffffffffffff1681526020019081526020015f205f8473ffffffffffffffffffffffffffffffffffffffff1673ffffffffffffffffffffffffffffffffffffffff1681526020019081526020015f20819055508173ffffffffffffffffffffffffffffffffffffffff168373ffffffffffffffffffffffffffffffffffffffff167f8c5be1e5ebec7d5bd14f71427d1e84f3dd0314c0f7b2291e5b200ac8c7c3b9258360405161229c9190612b11565b60405180910390a3505050565b8060015f8573ffffffffffffffffffffffffffffffffffffffff1673ffffffffffffffffffffffffffffffffffffffff1681526020019081526020015f205f8282546122f5919061304e565b925050819055508060015f8473ffffffffffffffffffffffffffffffffffffffff1673ffffffffffffffffffffffffffffffffffffffff1681526020019081526020015f205f828254612348919061383c565b925050819055508173ffffffffffffffffffffffffffffffffffffffff168373ffffffffffffffffffffffffffffffffffffffff167fddf252ad1be2c89b69c2b068fc378daa952ba7f163c4a11628f55a4df523b3ef836040516123ac9190612b11565b60405180910390a3505050565b5f5f60055f9054906101000a900473ffffffffffffffffffffffffffffffffffffffff1673ffffffffffffffffffffffffffffffffffffffff1663017e7e586040518163ffffffff1660e01b8152600401602060405180830381865afa158015612425573d5f5f3e3d5ffd5b505050506040513d601f19601f820116820180604052508101906124499190613883565b90505f73ffffffffffffffffffffffffffffffffffffffff168173ffffffffffffffffffffffffffffffffffffffff16141591505f600b549050821561253f575f811461253a575f6124c5856dffffffffffffffffffffffffffff16876dffffffffffffffffffffffffffff166124c0919061310f565b612557565b90505f6124d183612557565b905080821115612537575f81836124e8919061304e565b5f546124f4919061310f565b90505f82600585612505919061310f565b61250f919061383c565b90505f818361251e9190613290565b90505f8111156125335761253287826125ce565b5b5050505b50505b61254f565b5f811461254e575f600b819055505b5b505092915050565b5f60038211156125bc578190505f60016002846125749190613290565b61257e919061383c565b90505b818110156125b657809150600281828561259b9190613290565b6125a5919061383c565b6125af9190613290565b9050612581565b506125c9565b5f82146125c857600190505b5b919050565b805f5f8282546125de919061383c565b925050819055508060015f8473ffffffffffffffffffffffffffffffffffffffff1673ffffffffffffffffffffffffffffffffffffffff1681526020019081526020015f205f828254612631919061383c565b925050819055508173ffffffffffffffffffffffffffffffffffffffff165f73ffffffffffffffffffffffffffffffffffffffff167fddf252ad1be2c89b69c2b068fc378daa952ba7f163c4a11628f55a4df523b3ef836040516126959190612b11565b60405180910390a35050565b5f8183106126af57816126b1565b825b905092915050565b8060015f8473ffffffffffffffffffffffffffffffffffffffff1673ffffffffffffffffffffffffffffffffffffffff1681526020019081526020015f205f828254612705919061304e565b92505081905550805f5f82825461271c919061304e565b925050819055505f73ffffffffffffffffffffffffffffffffffffffff168273ffffffffffffffffffffffffffffffffffffffff167fddf252ad1be2c89b69c2b068fc378daa952ba7f163c4a11628f55a4df523b3ef836040516127809190612b11565b60405180910390a35050565b5f6e010000000000000000000000000000826dffffffffffffffffffffffffffff166127b891906138d5565b9050919050565b5f816dffffffffffffffffffffffffffff16836127dc9190613916565b905092915050565b5f5ffd5b5f5ffd5b5f819050919050565b6127fe816127ec565b8114612808575f5ffd5b50565b5f81359050612819816127f5565b92915050565b5f73ffffffffffffffffffffffffffffffffffffffff82169050919050565b5f6128488261281f565b9050919050565b6128588161283e565b8114612862575f5ffd5b50565b5f813590506128738161284f565b92915050565b5f5ffd5b5f5ffd5b5f5ffd5b5f5f83601f84011261289a57612899612879565b5b8235905067ffffffffffffffff8111156128b7576128b661287d565b5b6020830191508360018202830111156128d3576128d2612881565b5b9250929050565b5f5f5f5f5f608086880312156128f3576128f26127e4565b5b5f6129008882890161280b565b95505060206129118882890161280b565b945050604061292288828901612865565b935050606086013567ffffffffffffffff811115612943576129426127e8565b5b61294f88828901612885565b92509250509295509295909350565b5f81519050919050565b5f82825260208201905092915050565b8281835e5f83830152505050565b5f601f19601f8301169050919050565b5f6129a08261295e565b6129aa8185612968565b93506129ba818560208601612978565b6129c381612986565b840191505092915050565b5f6020820190508181035f8301526129e68184612996565b905092915050565b5f6dffffffffffffffffffffffffffff82169050919050565b612a10816129ee565b82525050565b5f63ffffffff82169050919050565b612a2e81612a16565b82525050565b5f606082019050612a475f830186612a07565b612a546020830185612a07565b612a616040830184612a25565b949350505050565b5f5f60408385031215612a7f57612a7e6127e4565b5b5f612a8c85828601612865565b9250506020612a9d8582860161280b565b9150509250929050565b5f8115159050919050565b612abb81612aa7565b82525050565b5f602082019050612ad45f830184612ab2565b92915050565b612ae38161283e565b82525050565b5f602082019050612afc5f830184612ada565b92915050565b612b0b816127ec565b82525050565b5f602082019050612b245f830184612b02565b92915050565b5f5f5f60608486031215612b4157612b406127e4565b5b5f612b4e86828701612865565b9350506020612b5f86828701612865565b9250506040612b708682870161280b565b9150509250925092565b5f819050919050565b612b8c81612b7a565b82525050565b5f602082019050612ba55f830184612b83565b92915050565b5f60ff82169050919050565b612bc081612bab565b82525050565b5f602082019050612bd95f830184612bb7565b92915050565b5f5f60408385031215612bf557612bf46127e4565b5b5f612c0285828601612865565b9250506020612c1385828601612865565b9150509250929050565b5f60208284031215612c3257612c316127e4565b5b5f612c3f84828501612865565b91505092915050565b5f604082019050612c5b5f830185612b02565b612c686020830184612b02565b9392505050565b612c7881612bab565b8114612c82575f5ffd5b50565b5f81359050612c9381612c6f565b92915050565b612ca281612b7a565b8114612cac575f5ffd5b50565b5f81359050612cbd81612c99565b92915050565b5f5f5f5f5f5f5f60e0888a031215612cde57612cdd6127e4565b5b5f612ceb8a828b01612865565b9750506020612cfc8a828b01612865565b9650506040612d0d8a828b0161280b565b9550506060612d1e8a828b0161280b565b9450506080612d2f8a828b01612c85565b93505060a0612d408a828b01612caf565b92505060c0612d518a828b01612caf565b91505092959891949750929550565b7f556e697377617056323a204c4f434b45440000000000000000000000000000005f82015250565b5f612d94601183612968565b9150612d9f82612d60565b602082019050919050565b5f6020820190508181035f830152612dc181612d88565b9050919050565b7f556e697377617056323a20494e53554646494349454e545f4f55545055545f415f8201527f4d4f554e54000000000000000000000000000000000000000000000000000000602082015250565b5f612e22602583612968565b9150612e2d82612dc8565b604082019050919050565b5f6020820190508181035f830152612e4f81612e16565b9050919050565b7f556e697377617056323a20494e53554646494349454e545f4c495155494449545f8201527f5900000000000000000000000000000000000000000000000000000000000000602082015250565b5f612eb0602183612968565b9150612ebb82612e56565b604082019050919050565b5f6020820190508181035f830152612edd81612ea4565b9050919050565b7f556e697377617056323a20494e56414c49445f544f00000000000000000000005f82015250565b5f612f18601583612968565b9150612f2382612ee4565b602082019050919050565b5f6020820190508181035f830152612f4581612f0c565b9050919050565b5f82825260208201905092915050565b828183375f83830152505050565b5f612f758385612f4c565b9350612f82838584612f5c565b612f8b83612986565b840190509392505050565b5f608082019050612fa95f830188612ada565b612fb66020830187612b02565b612fc36040830186612b02565b8181036060830152612fd6818486612f6a565b90509695505050505050565b5f81519050612ff0816127f5565b92915050565b5f6020828403121561300b5761300a6127e4565b5b5f61301884828501612fe2565b91505092915050565b7f4e487b71000000000000000000000000000000000000000000000000000000005f52601160045260245ffd5b5f613058826127ec565b9150613063836127ec565b925082820390508181111561307b5761307a613021565b5b92915050565b7f556e697377617056323a20494e53554646494349454e545f494e5055545f414d5f8201527f4f554e5400000000000000000000000000000000000000000000000000000000602082015250565b5f6130db602483612968565b91506130e682613081565b604082019050919050565b5f6020820190508181035f830152613108816130cf565b9050919050565b5f613119826127ec565b9150613124836127ec565b9250828202613132816127ec565b9150828204841483151761314957613148613021565b5b5092915050565b7f556e697377617056323a204b00000000000000000000000000000000000000005f82015250565b5f613184600c83612968565b915061318f82613150565b602082019050919050565b5f6020820190508181035f8301526131b181613178565b9050919050565b5f6080820190506131cb5f830187612b02565b6131d86020830186612b02565b6131e56040830185612b02565b6131f26060830184612b02565b95945050505050565b7f556e697377617056323a20464f5242494444454e0000000000000000000000005f82015250565b5f61322f601483612968565b915061323a826131fb565b602082019050919050565b5f6020820190508181035f83015261325c81613223565b9050919050565b7f4e487b71000000000000000000000000000000000000000000000000000000005f52601260045260245ffd5b5f61329a826127ec565b91506132a5836127ec565b9250826132b5576132b4613263565b5b828204905092915050565b7f556e697377617056323a20494e53554646494349454e545f4c495155494449545f8201527f595f4d494e544544000000000000000000000000000000000000000000000000602082015250565b5f61331a602883612968565b9150613325826132c0565b604082019050919050565b5f6020820190508181035f8301526133478161330e565b9050919050565b7f556e697377617056323a20494e53554646494349454e545f4c495155494449545f8201527f595f4255524e4544000000000000000000000000000000000000000000000000602082015250565b5f6133a8602883612968565b91506133b38261334e565b604082019050919050565b5f6020820190508181035f8301526133d58161339c565b9050919050565b7f556e697377617056323a204558504952454400000000000000000000000000005f82015250565b5f613410601283612968565b915061341b826133dc565b602082019050919050565b5f6020820190508181035f83015261343d81613404565b9050919050565b5f61344e826127ec565b91507fffffffffffffffffffffffffffffffffffffffffffffffffffffffffffffffff82036134805761347f613021565b5b600182019050919050565b5f60c08201905061349e5f830189612b83565b6134ab6020830188612ada565b6134b86040830187612ada565b6134c56060830186612b02565b6134d26080830185612b02565b6134df60a0830184612b02565b979650505050505050565b5f81905092915050565b7f19010000000000000000000000000000000000000000000000000000000000005f82015250565b5f6135286002836134ea565b9150613533826134f4565b600282019050919050565b5f819050919050565b61355861355382612b7a565b61353e565b82525050565b5f6135688261351c565b91506135748285613547565b6020820191506135848284613547565b6020820191508190509392505050565b5f6080820190506135a75f830187612b83565b6135b46020830186612bb7565b6135c16040830185612b83565b6135ce6060830184612b83565b95945050505050565b7f556e697377617056323a20494e56414c49445f5349474e4154555245000000005f82015250565b5f61360b601c83612968565b9150613616826135d7565b602082019050919050565b5f6020820190508181035f830152613638816135ff565b9050919050565b5f6040820190506136525f830185612ada565b61365f6020830184612b02565b9392505050565b5f81519050919050565b5f81905092915050565b5f61368482613666565b61368e8185613670565b935061369e818560208601612978565b80840191505092915050565b5f6136b5828461367a565b915081905092915050565b6136c981612aa7565b81146136d3575f5ffd5b50565b5f815190506136e4816136c0565b92915050565b5f602082840312156136ff576136fe6127e4565b5b5f61370c848285016136d6565b91505092915050565b7f556e697377617056323a205452414e534645525f4641494c45440000000000005f82015250565b5f613749601a83612968565b915061375482613715565b602082019050919050565b5f6020820190508181035f8301526137768161373d565b9050919050565b7f556e697377617056323a204f564552464c4f57000000000000000000000000005f82015250565b5f6137b1601383612968565b91506137bc8261377d565b602082019050919050565b5f6020820190508181035f8301526137de816137a5565b9050919050565b5f6137ef826127ec565b91506137fa836127ec565b92508261380a57613809613263565b5b828206905092915050565b5f6040820190506138285f830185612a07565b6138356020830184612a07565b9392505050565b5f613846826127ec565b9150613851836127ec565b925082820190508082111561386957613868613021565b5b92915050565b5f8151905061387d8161284f565b92915050565b5f60208284031215613898576138976127e4565b5b5f6138a58482850161386f565b91505092915050565b5f7bffffffffffffffffffffffffffffffffffffffffffffffffffffffff82169050919050565b5f6138df826138ae565b91506138ea836138ae565b92508282026138f8816138ae565b9150828204841483151761390f5761390e613021565b5b5092915050565b5f613920826138ae565b915061392b836138ae565b92508261393b5761393a613263565b5b82820490509291505056fea26469706673582212206f72f9afcce1475ba4466261ef1757fae55f95ea882a8169ac1895d7158bcb7264736f6c634300081e0033a2646970667358221220fc72995dbe09c9f0d6e7b4ecc2f5ad5244f1fa0852d0f80f56a9c882fb3c1fbe64736f6c634300081e0033","linkReferences":{}},"methodIdentifiers":{"PAIR_HASH()":"64f91c72","allPairs(uint256)":"1e3dd18b","allPairsLength()":"574f2ba3","createPair(address,address)":"c9c65396","feeTo()":"017e7e58","feeToSetter()":"094b7415","getPair(address,address)":"e6a43905","setFeeTo(address)":"f46901ed","setFeeToSetter(address)":"a2e74af6"},"id":24}