{"abi":[{"type":"constructor","inputs":[{"name":"_tokenAddress","type":"address","internalType":"address"}],"stateMutability":"nonpayable"},{"type":"function","name":"balance","inputs":[{"name":"account","type":"address","internalType":"address"}],"outputs":[{"name":"","type":"uint256","internalType":"uint256"}],"stateMutability":"view"},{"type":"function","name":"deposit","inputs":[{"name":"amount","type":"uint256","internalType":"uint256"}],"outputs":[],"stateMutability":"nonpayable"},{"type":"function","name":"deposits","inputs":[{"name":"","type":"address","internalType":"address"}],"outputs":[{"name":"","type":"uint256","internalType":"uint256"}],"stateMutability":"view"},{"type":"function","name":"myERC20","inputs":[],"outputs":[{"name":"","type":"address","internalType":"contract MyERC20V3"}],"stateMutability":"view"},{"type":"function","name":"withdraw","inputs":[{"name":"amount","type":"uint256","internalType":"uint256"}],"outputs":[],"stateMutability":"nonpayable"},{"type":"event","name":"Deposited","inputs":[{"name":"account","type":"address","indexed":true,"internalType":"address"},{"name":"amount","type":"uint256","indexed":false,"internalType":"uint256"}],"anonymous":false},{"type":"event","name":"Withdrawn","inputs":[{"name":"account","type":"address","indexed":true,"internalType":"address"},{"name":"amount","type":"uint256","indexed":false,"internalType":"uint256"}],"anonymous":false}],"bytecode":{"object":"0x608060405234801561000f575f5ffd5b50604051610acb380380610acb833981810160405281019061003191906100d4565b805f5f6101000a81548173ffffffffffffffffffffffffffffffffffffffff021916908373ffffffffffffffffffffffffffffffffffffffff160217905550506100ff565b5f5ffd5b5f73ffffffffffffffffffffffffffffffffffffffff82169050919050565b5f6100a38261007a565b9050919050565b6100b381610099565b81146100bd575f5ffd5b50565b5f815190506100ce816100aa565b92915050565b5f602082840312156100e9576100e8610076565b5b5f6100f6848285016100c0565b91505092915050565b6109bf8061010c5f395ff3fe608060405234801561000f575f5ffd5b5060043610610055575f3560e01c80632e1a7d4d146100595780636d3739c414610075578063b6b55f2514610093578063e3d670d7146100af578063fc7e286d146100df575b5f5ffd5b610073600480360381019061006e919061054b565b61010f565b005b61007d610311565b60405161008a91906105f0565b60405180910390f35b6100ad60048036038101906100a8919061054b565b610335565b005b6100c960048036038101906100c49190610644565b6104b9565b6040516100d6919061067e565b60405180910390f35b6100f960048036038101906100f49190610644565b6104ff565b604051610106919061067e565b60405180910390f35b5f8111610151576040517f08c379a000000000000000000000000000000000000000000000000000000000815260040161014890610717565b60405180910390fd5b8060015f3373ffffffffffffffffffffffffffffffffffffffff1673ffffffffffffffffffffffffffffffffffffffff1681526020019081526020015f205410156101d1576040517f08c379a00000000000000000000000000000000000000000000000000000000081526004016101c89061077f565b60405180910390fd5b5f5f9054906101000a900473ffffffffffffffffffffffffffffffffffffffff1673ffffffffffffffffffffffffffffffffffffffff1663a9059cbb33836040518363ffffffff1660e01b815260040161022c9291906107ac565b6020604051808303815f875af1158015610248573d5f5f3e3d5ffd5b505050506040513d601f19601f8201168201806040525081019061026c9190610808565b508060015f3373ffffffffffffffffffffffffffffffffffffffff1673ffffffffffffffffffffffffffffffffffffffff1681526020019081526020015f205f8282546102b99190610860565b925050819055503373ffffffffffffffffffffffffffffffffffffffff167f7084f5476618d8e60b11ef0d7d3f06914655adb8793e28ff7f018d4c76d505d582604051610306919061067e565b60405180910390a250565b5f5f9054906101000a900473ffffffffffffffffffffffffffffffffffffffff1681565b5f8111610377576040517f08c379a000000000000000000000000000000000000000000000000000000000815260040161036e90610903565b60405180910390fd5b5f5f9054906101000a900473ffffffffffffffffffffffffffffffffffffffff1673ffffffffffffffffffffffffffffffffffffffff166323b872dd3330846040518463ffffffff1660e01b81526004016103d493929190610921565b6020604051808303815f875af11580156103f0573d5f5f3e3d5ffd5b505050506040513d601f19601f820116820180604052508101906104149190610808565b508060015f3373ffffffffffffffffffffffffffffffffffffffff1673ffffffffffffffffffffffffffffffffffffffff1681526020019081526020015f205f8282546104619190610956565b925050819055503373ffffffffffffffffffffffffffffffffffffffff167f2da466a7b24304f47e87fa2e1e5a81b9831ce54fec19055ce277ca2f39ba42c4826040516104ae919061067e565b60405180910390a250565b5f60015f8373ffffffffffffffffffffffffffffffffffffffff1673ffffffffffffffffffffffffffffffffffffffff1681526020019081526020015f20549050919050565b6001602052805f5260405f205f915090505481565b5f5ffd5b5f819050919050565b61052a81610518565b8114610534575f5ffd5b50565b5f8135905061054581610521565b92915050565b5f602082840312156105605761055f610514565b5b5f61056d84828501610537565b91505092915050565b5f73ffffffffffffffffffffffffffffffffffffffff82169050919050565b5f819050919050565b5f6105b86105b36105ae84610576565b610595565b610576565b9050919050565b5f6105c98261059e565b9050919050565b5f6105da826105bf565b9050919050565b6105ea816105d0565b82525050565b5f6020820190506106035f8301846105e1565b92915050565b5f61061382610576565b9050919050565b61062381610609565b811461062d575f5ffd5b50565b5f8135905061063e8161061a565b92915050565b5f6020828403121561065957610658610514565b5b5f61066684828501610630565b91505092915050565b61067881610518565b82525050565b5f6020820190506106915f83018461066f565b92915050565b5f82825260208201905092915050565b7f546f6b656e42616e6b3a20776974686472617720616d6f756e74206d757374205f8201527f6265207468616e20300000000000000000000000000000000000000000000000602082015250565b5f610701602983610697565b915061070c826106a7565b604082019050919050565b5f6020820190508181035f83015261072e816106f5565b9050919050565b7f546f6b656e42616e6b3a20696e73756666696369656e742062616c616e6365005f82015250565b5f610769601f83610697565b915061077482610735565b602082019050919050565b5f6020820190508181035f8301526107968161075d565b9050919050565b6107a681610609565b82525050565b5f6040820190506107bf5f83018561079d565b6107cc602083018461066f565b9392505050565b5f8115159050919050565b6107e7816107d3565b81146107f1575f5ffd5b50565b5f81519050610802816107de565b92915050565b5f6020828403121561081d5761081c610514565b5b5f61082a848285016107f4565b91505092915050565b7f4e487b71000000000000000000000000000000000000000000000000000000005f52601160045260245ffd5b5f61086a82610518565b915061087583610518565b925082820390508181111561088d5761088c610833565b5b92915050565b7f546f6b656e42616e6b3a206465706f73697420616d6f756e74206d75737420625f8201527f652067726561746572207468616e203000000000000000000000000000000000602082015250565b5f6108ed603083610697565b91506108f882610893565b604082019050919050565b5f6020820190508181035f83015261091a816108e1565b9050919050565b5f6060820190506109345f83018661079d565b610941602083018561079d565b61094e604083018461066f565b949350505050565b5f61096082610518565b915061096b83610518565b925082820190508082111561098357610982610833565b5b9291505056fea264697066735822122012afa80312d1b2b2843c68c9fdcfa5e5e21a27c855b87f582aa5f6101adc658c64736f6c634300081e0033","linkReferences":{}},"methodIdentifiers":{"balance(address)":"e3d670d7","deposit(uint256)":"b6b55f25","deposits(address)":"fc7e286d","myERC20()":"6d3739c4","withdraw(uint256)":"2e1a7d4d"},"id":1}